:10000000803F002059130000E15300002D13000031
:100010002D1300002D1300002D1300000000000020
:10002000000000000000000000000000951000002B
:100030002D130000000000002D1300002D13000000
:100040001511000015110000151100001511000018
:100050001511000015110000151100001511000008
:1000600015110000151100001511000015110000F8
:1000700015110000151100001511000015110000E8
:1000800015110000151100001511000015110000D8
:1000900015110000151100001511000015110000C8
:1000A00015110000151100001511000015110000B8
:1000B00015110000151100001511000015110000A8
:1000C0001511000015110000151100001511000098
:1000D0001511000015110000151100001511000088
:1000E0001511000015110000151100001511000078
:1000F0001511000015110000151100001511000068
:100100007FB5214B214AC3F80026C3F80426C3F863
:100110000826C3F80C26C3F81026C3F81426C3F823
:100120001826C3F81C2604F005FC194800F034F822
:1001300000B9FEE701A800F0F9FB164B1B688342EB
:1001400000D0FEE74FF4E041002005F0E2FB00B1F3
:10015000FEE769469DF8080004F0DAFB009B039C6B
:100160001C44019B1D8900F09DFD66194FF0200283
:10017000EFF3118382F31288BFF36F8F635983F318
:10018000088873689847FEE7000001403546526EC4
:10019000EE610000B400002010B5044C236813B9D0
:1001A00002F0E2FE2060206810BD00BFB000002019
:1001B0002DE9F04F1D46DBB0824BDDF890B11E6893
:1001C000DDE96648174600F03BFD7F4B0122C3F88E
:1001D00000253AA803F0DCFA3CB1B8F1000F04DDC9
:1001E000424621463AA804F089FF7B89B7F8088087
:1001F0009844FB684FF000099844C8454ED80DA9B3
:100200003AA803F037FB704B0022C3F80025C3F86F
:100210000025689B23B120220DA9184605F01CF982
:10022000002300932A464FF6FF73394607A804F0CF
:1002300082FB0446002844D1DFF898A1DFF88881CA
:1002400002904FF0FF370DF1160305AA06A907A883
:1002500004F0BDFB041E34DB40F0A480BDF8169012
:10026000B9F1100F38D1BDF81490B9F1200F40F05A
:10027000A38006994B463AAA284605F026F804467C
:10028000F8B94A463AA90DA804F018FC04464F4BA9
:100290001B68834215D101230293D4E7659AA8EB2A
:1002A00009039A4228BF1A461346924649465A46BF
:1002B000284605F00AF8044638B1434B0022C3F83B
:1002C000002520465BB0BDE8F08F524659463AA85B
:1002D00004F014FFD14490E7B9F1010F3ED1BDF80D
:1002E0001430202B68D806993AAA284604F0EDFF6E
:1002F00004460028E5D19DF814B0BBF1200F09D8C1
:10030000DAF80030324F0393039B9C4205DB002355
:10031000C8F800354FF0FF341CE000F091FCC8F83D
:1003200000951DA803F034FA7A6857F8081B126884
:100330001DA804F0E3FE15A91DA803F09BFA0022F6
:10034000C8F800253AA95A4615A805F05CF818B96E
:10035000C8F80005274676E70134D5E7B9F1220F42
:100360007FF471AF7B1C3FF46EAFDAF80030BB4214
:1003700015DDBDF81430802B1ED806993AAA284600
:1003800004F0A3FF044600289BD1FFB2BDF814304F
:1003900000973AAA20210DA800F01EF806464FF05B
:1003A000FF3750E7029B53B1084B1B68B34201D0A3
:1003B000044B1E68344684E74FF0FF3481E7012484
:1003C0007FE700BF0000002000A00250B400002022
:1003D0009C5E0000985E00002DE9F04196B0174643
:1003E0001D469DF87020354B0E4653F83210019192
:1003F00003EBC20380465B68186802AA01443023FD
:1004000001A804F008FE10B14FF0FF3053E0DDE921
:1004100001431C4403AA06AB214601A804F023FEB5
:100420000028F1D1049A072AEED12549059804F055
:10043000EAFF0028E8D1079A082AE5D1214908985F
:1004400004F0E1FF0028DFD102AA214601A804F050
:10045000F6FD0028D8D1DDE9013213449C42D3D106
:10046000412AD1D13D44302303AA294602A802974C
:1004700004F0D1FD0028C7D1DDE9023213449D42CA
:10048000C2D32A4602A906A804F0ECFA0028BBD180
:100490002A4602A90EA804F0E5FA0028B4D1202EBD
:1004A000B2D101990B78042BAED1334606AA0131A3
:1004B000404600F0DDFB16B0BDE8F0819C5E000018
:1004C00001620000096200002DE9F04186B00323BB
:1004D000DFF86C80ADF800300D466F46002617F847
:1004E000010B01A900F0F2FC0446A0B90198816853
:1004F000102302AA103904F0E8FE0446019804F023
:10050000E3FE44B91022414602A804F07CFF40B14A
:100510002EB14FF0FF34204606B0BDE8F081012631
:10052000DDE7019805F014FA0423A0F108012A463A
:10053000019804F0CAFE0446019804F0C5FEEAE7FB
:10054000DE6100002DE9F041344B88B00646002002
:100550000C461D6804F0E2F906A9C0B200F0B6FC32
:1005600000284CD1214604F0D9F92C2507A9C0B2A6
:1005700005FB046500F0AAFC002830D04FF02C08E1
:1005800008FB04F806EB0807396911F0100131D1B6
:100590004FF480730193224B00932A46CDE9031157
:1005A000069B02910846FFF703FE05461D4B56F8D1
:1005B000082006989A420CD13A89FB68D1438B42B5
:1005C00007D813448268934203D2174B1B68AB428F
:1005D00012D084B18268002104F0AFFE1CE00798BD
:1005E00004F0CBFE0746079804F06EFE6B1EEA1C73
:1005F0009A4208D164B90125069804F065FE2846A0
:1006000008B0BDE8F08113F8011FB942F0D0B5E79A
:100610000699304604F04BFB2546EDE7000000202C
:10062000681600203DB8F396B400002073B50D465F
:10063000044600212846CDE9001104F0F7FAF0B194
:10064000124E2368B34203D101AA204604F082FA75
:10065000E36AB34204D16A460121204604F07AFAE3
:10066000DDE90032934288BF0193019BAB602046D5
:10067000019A294600F0E0F9002002B070BD05F1B2
:100680000801FFF721FFAB680193F0E73DB8F3964F
:100690002DE9F84FDFF878B01B4C1C4D8A46904688
:1006A000994600260B9B9E4201D300200FE00B9B36
:1006B000174A9F1BB7F5806F28BF4FF480673B46F2
:1006C00006EB0901504604F000FE10B10120BDE820
:1006D000F88F0A993B465A467118404604F011FEBD
:1006E0000028F3D1C4F800563E44C4F80456C4F8B8
:1006F0000856C4F80C56C4F81056C4F81456C4F87A
:100700001856C4F81C56CDE7000001403546526E1D
:10071000180100202DE9F043804B1E68804B436296
:100720000F46804B0365002185B00446084604F05F
:10073000F5F804F12001C0B200F0C8FB012100204F
:1007400004F0ECF804F14C01C0B200F0BFFB054628
:10075000204604F040FA002848D1002211462046E5
:1007600004F0DFF9002858D1204604F0C7FB002828
:1007700053D0684604F051FA6946204604F0EBFA7B
:1007800000284AD1684604F051FA80F001006A4618
:10079000C1B2204604F0C5F90246F0BB684604F039
:1007A00045FA8046E8BB69462046FFF73FFF9DF8C3
:1007B000073084F85830033B012B06D8404604F03C
:1007C00019FB10B1FF2384F858309DF80730023B25
:1007D000022B06D8002004F0FBFA10B1FF2384F8A6
:1007E000583094F85830FF2B12D1FEE7012398427D
:1007F00084F85830B1D194F858308DF80730042B74
:1008000038D8012B3CD853D0FF2384F858304FE020
:100810006A460021204604F084F9012384F8583008
:10082000E9E79DF80790B9F1010F17D1104601F0E3
:100830005DFE831E022B80460DD849462046FFF7F9
:1008400081FE394B1B68984205D001280CBF4FF040
:1008500001084FF0050884F85880CCE701212046B4
:10086000FFF770FE304B1B6898420CBF9DF80730B5
:100870000523D3E7052BC7D1002004F0BBFA12E013
:1008800069462046FFF7D2FE94F85830DA1E012A56
:1008900005460BD8002004F0ADFA05460028B3D178
:1008A000002004F095FA054610B1ADE7022BF7D011
:1008B00094F85830FF2B00D1FEE7012B06D06A4692
:1008C0000021204604F02DF90546D0B9002120462C
:1008D000FFF738FE0646DFF85080D8F80030834234
:1008E0000FD110220021684604F0C1FD206A04F0F7
:1008F0001FF83871236AD8F800605B68BB603C6001
:100900000025E06C04F0E0FC206A04F0DDFC002D22
:1009100014BF2846304605B0BDE8F0830000002033
:1009200018050020180D0020B400002038B5064D31
:10093000044660220021284604F099FD21462846FD
:10094000FFF7E8FE38BD00BFB800002073B51646BB
:100950001C4633B3436A5D686379012B15D101BB33
:100960001F4B22681B689A4298BF0025002003F0A5
:10097000D5FF01A9C0B200F0A9FAF0B10125019894
:1009800004F0A2FC284602B070BD022B09D12368F6
:10099000012B08D9124A1268934202D8B1FA81F1A8
:1009A00049090025E2E7FCD10029DFD00129F8D16F
:1009B0002179023918BF0121F3E729460198202344
:1009C000324604F082FC05460028D7D1002CD6D050
:1009D000356804482D1A18BF4FF0FF35CFE700BF28
:1009E000040000203DB8F39673B54B681446114AD5
:1009F00003F0FF23934206460D4618D10B68012BE6
:100A000015D16946204601F01DFD9DF80030032BED
:100A10000DD12146304604F04AF9204605F005F88C
:100A2000A968204604F06EF8204601F0EBFC02B005
:100A300070BD00BF000100042DE9F04F2DED028BC9
:100A4000436A0C465E6889B00546012100233344A1
:100A50009342084601F10101F9D3DFF8DCB1CBF88C
:100A60000000204604F0E2F8A8B1E86D04F028F890
:100A7000AB6A0022013B3244904201D9013BFAE7C4
:100A8000DBF800209A4206D30123E37109B0BDECE4
:100A9000028BBDE8F08F06A9032000F017FA07A922
:100AA000012000F013FA079A21462846FFF79CFF21
:100AB0006379012B08D1DBF80070DFF880A1DBF847
:100AC0000030A7B9012323604FF00203DFF86C81E7
:100AD00063710127DBF80030DDF81890BB424DD27E
:100AE000484604F0F1FB079804F0EEFBCEE72268DD
:100AF00001339B1ABB423FD36B6ADDF8188019683B
:100B000053F8370003EBC703012A53F8083CA3EB63
:100B1000010308EE103AA0EB010912D1E268079B2D
:100B2000022A0AD041462846029304F0C0F8224621
:100B30004146284604F0F0F8029B1946284604F086
:100B4000B6F832464946404604F0AFF818EE103A7F
:100B500042464146CDE900962846FFF799FD2146D9
:100B6000284604F070F823680133236020B1DAF8D6
:100B700000300133CAF80030013FA0E72368BB42D0
:100B800057D8696A286D51F837300393FA00083A4C
:100B90000B6850F802C0029303682079DDF81CA0AE
:100BA0000128ACEB030342D189580593029B3246DE
:100BB000C91A4846049104F078F80499059B0091FD
:100BC0004A465146019628460493FFF761FD2146A7
:100BD000284604F038F84FF002032371049B20B13B
:100BE000D8F800200132C8F8002019463246504695
:100BF000049304F05AF8049B0093DDE9022349466C
:100C00009B1A019652462846FFF742FD2146284688
:100C100004F019F82368013323604FF001032371B6
:100C200038B1D8F800300133C8F8003001E00228AC
:100C3000DBD001374EE700BF04000020181500206C
:100C400070B5094D2B7853B9084C0126C4F80065DE
:100C500002F040FE28B92E70C4F8000570BD0020D7
:100C6000FCE74FF0FF30F9E76817002000A00250C2
:100C700070B50B4EAEB01D46CDE902210446FFF71C
:100C8000DFFF0123C6F80035DDE902212346009588
:100C900005A804F0B1FF0023C6F800352EB070BDE2
:100CA00000A00250164A4FF0FF3301215160C2F8F4
:100CB0004833C2F8083302F5C0425160C2F84833E5
:100CC000C2F8083302F598325160C2F84833C2F8CE
:100CD0000833A2F508320021C2F80015C2F8083323
:100CE00002F51832C2F80015C2F80833A2F5104216
:100CF000C2F808354FF08042C2F80833704700BF91
:100D000000B000402DE9F74FB0F8189019F008082E
:100D1000044693460ED001290CBF49F0100949F052
:100D20002009A0F818908BF31188BFF36F8F03B0E0
:100D3000BDE8F08FDFF890A109F00709022907D17B
:100D4000204604F014FA0028EDD00128238B4BD163
:100D50006769218B002F15DA256821F00701C4E9A6
:100D6000008841F0010121830026218B01F0070258
:100D70004A4502D0A368002B57D10DB9002E6FD081
:100D8000002353E001F007035A1F012A1DD821F068
:100D90000701062B256889B2C4E900880AD13DB154
:100DA000638B2A46126801339BB2002AFAD163830F
:100DB00041F002012183204604F0D9F90028D3D064
:100DC000238B43F020032383CEE7042B0AD121F0A9
:100DD000070189B22183204604F0C9F910B141F01E
:100DE000200121830025BFE7032809D1226923F0D0
:100DF0000703166843F00603238300252F46B4E754
:100E0000042806D1226923F00703566843F004033F
:100E1000F2E7052806D1226923F00703966843F01C
:100E20000503E9E700252E46E8E7012341F0080124
:100E300021838BF31188BFF36F8F03BB002D31D15A
:100E400016B151462046B0474FF02003EFF3118B07
:100E500083F31288BFF36F8F238B23F00803238360
:100E6000238BDA0627D523F0100323830121B4F85E
:100E7000189009F0070900297FF460AF53E7A168D3
:100E80000029DBD0D1F80090D1F804B001923B46A4
:100E90002046D847019AB9F1000FCFD04946D9F87A
:100EA0000090F1E729463B46204601922D6804F068
:100EB0007AF9019AC2E713F020011EBF23F0200344
:100EC00023830221D3E700BFD35100000C4B1B68E2
:100ED00070B573B10B4A15680022AA4202DB6FF0AD
:100EE000010070BD1C4613F8106B864204D001321D
:100EF000F3E76FF00C00F4E70C600020F1E700BFAF
:100F000008000020385F000070B588B005460C4628
:100F1000C0B269461646FFF7D9FF00281FDB009BC9
:100F2000EBB15A6802929A682168D8680195CDE9B8
:100F300003260022CDE90612059202F015F80546B7
:100F4000009804F0C1F96DB12846084901AA04F0DF
:100F5000B6FB079808B9059B236008B070BD6FF019
:100F60001500FAE76FF01200F7E700BF8D5300009D
:100F7000014802F065B900BF3C5F00000149102242
:100F80000A60704710ED00E072B6494081F31188A5
:100F900020BF80F3118862B6704700BF43B2002BB8
:100FA00008DB012200F01F0002FA00F05B09024A90
:100FB00042F82300704700BF00E100E043B2002B7D
:100FC0000DDB01225B0900F01F0002FA00F0203364
:100FD000034A42F82300BFF34F8FBFF36F8F704770
:100FE00000E100E0054B420900F01F0053F8222009
:100FF000012303FA00F01040704700BF00E100E059
:1010000043B2002BA8BF03F1604301F10101B8BF57
:10101000064B4FEA4111ACBF03F5614300F00F00EE
:10102000C9B2B4BF195483F80013704714ED00E03F
:1010300030BFFFF7FDBF00BF144A08B5144B22F0C4
:101040007F029A60BFF34F8FBFF36F8FD3F8882072
:1010500022F47002C3F88820D3F8882042F4A0025A
:10106000C3F888204FF04042C3F83422BFF34F8FBB
:10107000BFF36F8F0023E1EE103A01F0B7FF01F0EC
:10108000FBFF00F05DF901F0BDFF00BF00000000B4
:1010900000ED00E01EF0040F0CBFEFF30880EFF34B
:1010A0000980816911F8021C0229FFD001B504F002
:1010B0008FF901BD10F1160F074B08D0984208D3E5
:1010C0002033834205D98B4203D90448704720332B
:1010D000F9E70020704700BF80170020A01700200C
:1010E0000446084611461A460023E1EE103A084B22
:1010F000202583F3098863B64FF0000383F311883A
:10110000BFF36F8FA04785F31188BFF36F8FFEE7A2
:10111000A03F002001B5EFF30580A0F110004FEAD9
:10112000C0000449014409C99847BDE8014002498B
:1011300008470000D45C00003D110000704700BF6C
:1011400038B51C4B14469A6A9A6A9A6A0546900703
:1011500020D5586B9A6A12061CD519B19A6A22F0EA
:1011600080029A629A6A9A6A9A6AD20615D49B6A2F
:101170009B0712D400200F4B9A6A920642BF5A6A0C
:1011800022F400525A629A6A42F0FF029A620023E5
:10119000237038BD6FF01500E4E7064B5B68190556
:1011A000E8D52946FFF786FF0028E3D080F30988B9
:1011B0000220E0E700ED00E00D4B9A6A9A6A9A6A15
:1011C000920508D59A6B9A6A120404D518B19A6AE6
:1011D00022F400429A62064B9A6A9A6AD20558BF74
:1011E0009A6A9A6A002042F47F429A6208707047B5
:1011F00000ED00E070B5484B5B688AB0C3F30803AC
:10120000002686F31188BFF36F8F02F07F44B4F19C
:101210007F4F12D102F00C04082C0ED014074EBFE1
:101220000D46054601260022033B8DF80720032BBF
:101230006BD8DFE803F00455595D3546F3E7364BCC
:10124000DC6A14F0020460D1DA6A002A15DBDA6A7B
:10125000520012D5AA6932F8021C4DF60272914270
:101260000AD093F828200AB30DF10702012128467D
:10127000FFF766FF044600E02C689DF807309BB935
:101280002022294602A804F0E7F8099B002E3ED050
:10129000C3F3080222B96FEA53236FEA4323099389
:1012A00002A9204604F092F80AB070BD93F82920F4
:1012B0002AB10DF107010120FFF77EFFDAE75A8D11
:1012C00092B2002AD9D09A6A9A6A9A6A9A6A9A6AF3
:1012D0009A6A9A6A6FEA02426FEA12429A62CCE70D
:1012E0000DF107020021C2E70DF107010020E3E73D
:1012F000094B9A6A9A6A9A6A9A6A9A6A9A6A9A6A7E
:101300006FEA02426FEA12429A620024B5E723F4C0
:10131000FF7323F00103C2E700ED00E0024A5369C6
:1013200043F010035361704700ED00E0EFF30880D5
:10133000EFF3098101B57246FFF75CFF01BD00BF05
:10134000044800232021C2180133302B82F80013F7
:10135000F9D1704700E100E0002080F31488BFF36A
:101360006F8F04F075FC00200D490860BFF34F8FAC
:101370000C4880F3088800F02BF8202080F31188B7
:1013800009484FF40261401880F30988EFF3148094
:101390000221084380F31488BFF36F8FFFF74CFEE0
:1013A00094ED00E0803F0020A03F00200749D1F8E5
:1013B00090200023C2F307221846934200D17047C1
:1013C000C1F89830C1F8A0000133F6E700ED00E065
:1013D00008B572B6002383F31388FFF7E7FF144BB9
:1013E0004FF0FF32C3F88020C3F88420C3F8882070
:1013F000C3F88C20C3F89020C3F89420C3F8982039
:10140000C3F89C20C3F88021C3F88421C3F8882145
:10141000C3F88C21C3F89021C3F89421C3F8982114
:10142000C3F89C2162B6BFF34F8FBFF36F8F08BD27
:1014300000E100E0024B034A0348022100F05EB8DD
:101440000000042000000020445F0000F0B51F4FA2
:1014500000268E4201DB1046F0BD44689CB353B1B8
:1014600004F1FF3C14EA0C0F18D11F2C16D90568A3
:101470001CEA050F12D1202C0568D0F808C0D2B2A2
:101480000FD9B4F1004F0ED8013CB4FA84F4C4F182
:101490001F046400072A4CEA040406D96FF0150201
:1014A000D9E70824F6E73E24F4E725F01F051543A5
:1014B00045F0100544F00104C7F89820C7F89C5087
:1014C0000132C7F8A04001360C30C2E700ED00E061
:1014D000044B0522C3F89420BFF34F8FBFF36F8FE7
:1014E000704700BF00ED00E0BFF35F8F024B0022AA
:1014F000C3F89420704700BF00ED00E010B5034C26
:1015000001232278FFF7A2FF207010BD6917002089
:1015100014490868082810B521D8FFF7E5FF124CD8
:1015200049680022904201F10C0105D10F4B18705F
:10153000FFF7CEFF002010BDC4F8982051F80C3CF6
:1015400023F01F03134343F01003C4F89C3051F8F9
:10155000043C43F00103C4F8A0300132E2E74FF04D
:10156000FF30E8E75C5F000000ED00E06917002055
:1015700010B54FF02003EFF3118083F31288BFF30F
:101580006F8F4FF0804301224FF08051C3F87825D0
:10159000D1F83041082C08D1D1F83411052904D8EC
:1015A000074C615C09B1C3F838264FF08043012233
:1015B000C3F8802580F31188BFF36F8F002010BD22
:1015C0008462000020B1034B800143F001031847FF
:1015D000704700BF905E0000084B70B5C31A0D46FF
:1015E00007499B10044659430648402203F064FF14
:1015F0002B4601462046BDE8704018472C150020B8
:10160000B76DDBB68C5C000073B50C4C0C4A402304
:10161000041B00930D460B460A49A410614306467D
:10162000094803F075FF011E05DA30462B4602B06B
:10163000BDE87040184702B070BD00BF2C150020F7
:1016400085550000B76DDBB68C5C0000002270B5DC
:10165000012104461046FFF7D3FC0F4801F0F6F8CD
:101660000E4B984215D104F01EFA26690C493046FB
:1016700003F0CDFD00280BDB246909490125356401
:1016800004F11C0003F0C3FD002801DBE564002029
:1016900070BD6FF00400FBE7E11600000000AD0B29
:1016A000A45F000073B50C2301460B484B43C418DC
:1016B000D4E90E5200264033A6631844019203F089
:1016C000E8FE35B1019A05482B4602B0BDE87040EE
:1016D000184702B070BD00BF2C1500208C5C0000C4
:1016E00010B1012804D07047034B1B6C5B0701D17C
:1016F000FFF7D8BF704700BF2C15002008B54FF08A
:101700002003EFF3118183F31288BFF36F8F124A26
:10171000136843F0020013F0010310600CD04FF087
:101720008042D2F80C34D2F80C2413F0010303D019
:101730000A4803F0AEFE012381F31188BFF36F8FD7
:1017400023B1BDE808400020FFF7ACBFBDE808406A
:10175000012004F0B5B900BF7C1500206C150020F5
:10176000094BBFF35B8F53E8002F22F0020143E8DF
:1017700000100028F7D1BFF35B8FD30702D40120FC
:1017800004F0DBB9704700BF7C1500202DE9F84359
:101790003749BFF35B8F0746012251E8003F41E81C
:1017A00000200028F9D1BFF35B8F33B931493248AB
:1017B0004B60CB608A6003F03DFD7B1E012B31D86E
:1017C000012F07D14FF08043D3F81C3403F00303FB
:1017D000012B27D004F004FA044618B9274B1B78D4
:1017E000002B3DD14FF02003EFF3118683F31288D5
:1017F000BFF36F8F0124DFF888904FF080454FF0E2
:101800000108D5F81834D5F81824D2030CD503F004
:101810000303012B01D0012F06D1DCB186F311881F
:10182000BFF36F8FBDE8F8833046FFF7ADFBD5F807
:101830001835002BE5D1D5F80421002AE1D0C5F8F0
:101840000431D5F80431C5F81885C9F88081C5F888
:101850000880D6E74FF080430222C3F80423E1E773
:101860004FF080430222C3F808230646C3E700BFB7
:10187000801500201C150020481500206D17002041
:1018800000E100E000F1744000F5A6000A289ABFCC
:10189000024B33F910006FF00F007047C861000071
:1018A000024B0B6001231360704700BFDC5F000038
:1018B00000487047E45F000010B5084C23785BB91E
:1018C00002690749406801F029F9FFF7DBFFB0FA28
:1018D00080F35B09237010BD0020FCE76A1700202D
:1018E000A555000010B5084C01F040FAA04205D102
:1018F00001F060FA054B00221A7010BD4CF2503016
:1019000004F074F9F0E700BF0000AD0B6A17002087
:101910000C4B994210B5044610D14FF02002EFF362
:10192000118382F31288BFF36F8F1846237833B187
:101930000023237080F31188BFF36F8F10BDFFF772
:1019400023FBEAE70000AD0B2DE9F04F804685B0A0
:101950000F461C461646002A00F09280002B00F02D
:101960008D8000294268C0F28B809269CB18934227
:1019700000F28680FFF7A0FF0546002876D17D4261
:1019800005F00305A54228BF2546734203F0030373
:1019900006F0030B58BFC3F1000BCBF1000B0BF0AB
:1019A000030BA34528BFA346631BA4EB0B0424F041
:1019B000030423F00309A145C8BFA14603F0030AAD
:1019C000C8BFA3EB040AB9F1000F18D006EB0B0354
:1019D0007A1949461846019304F0D0F804460146A6
:1019E000D8F81000FFF794FF274A94423AD15D459A
:1019F00005D0019B4A461946701903F015FDBDB18B
:101A0000C5F1040BA7EB0B02042102A804F0B6F801
:101A100004460146D8F81000FFF77AFF1A4B9C42A3
:101A200020D102AB2A4603EB0B01304603F014FD34
:101A3000BAF1000F20D008217A194A440DEB0100B9
:101A400004F09CF804460146D8F81000FFF760FF48
:101A50000D4B9C4206D109EB0500524602A93044C9
:101A600003F0FAFC2046FFF70DFF0546FFF73AFFAB
:101A7000284605B0BDE8F08F034CF3E71D46F7E7B5
:101A80006FF01505F4E700BF0000AD0B2DE9FF472F
:101A900005460F461E469046002A6DD0002B6BD09F
:101AA000042B01D99A0767D1BB0765D1002F6A685B
:101AB00062DB9269BB1993425ED82846FFF7FCFEB1
:101AC000044600284ED103F0BEFD0446002840D154
:101AD000032E1CD83A460421684604F04FF8044609
:101AE00001462869FFF714FF254B9C4231D132464D
:101AF0004146684603F0B0FC3A460421684604F0CB
:101B00003AF8044601462869FFF702FF21E008F091
:101B10006043B3F1005F2BD0DFF864A0102EB14614
:101B200028BF4FF010094A464146684603F094FC2E
:101B30003A461021684604F01EF80446014628691A
:101B4000FFF7E6FE544504D1B6EB0906C8444F44FE
:101B5000E4D1012003F077FD002C18BF2046FFF7E9
:101B600091FE0446FFF7BEFE204604B0BDE8F087B4
:101B70003A4631464046C2E76FF01504F4E700BF2D
:101B80000000AD0B2DE9F84F0E1ED0F804908046F2
:101B9000174658DBD9F81830B2189A4253D8002F9C
:101BA00051D046EA0703C3F30B03002B4BD1FFF7D9
:101BB00083FE0446F8B903F046FD0446D8B9DFF8C1
:101BC00090A0D9F81830BB421AD103F0DAFFBB4617
:101BD0000546D8F810002946FFF79AFE1B4B9D4298
:101BE0002CD1B7EB0B075E44EBD1012003F02BFDAA
:101BF000002C08BF0446FFF775FE2046BDE8F88FAD
:101C0000B7F5803F09D3B3B23BB93146012001F0AB
:101C100025F94FF4803B0546DBE7B7F5805F09D334
:101C2000C6F30B0030B9314601F018F94FF4805B70
:101C30000546CEE74FF0000B5546CAE72846FFF7AA
:101C400021FE0446D1E76FF01504D6E70000AD0B86
:101C50000400AD0B30B543681D6A87B0044603AA83
:101C60000021284603F05AFD00284DDB039B2A681B
:101C70001979186803F06FFD002845DB0022012167
:101C80002920FFF7BDF9656822692F49284600F031
:101C900045FFFFF7F7FD002836DBEB7A023B012B0F
:101CA00034D9AD7A033D012D8CBF0025012503F009
:101CB000AFFC002828DBC2B2C0F38010854201AD22
:101CC00026D1FFF70FFE00230322CDE90223049360
:101CD00020469F230595CDF804D08DF80C30FFF7F2
:101CE000EBFD054620B9014603A803F05FFC05465D
:101CF000FFF7F8FD35B96068032269461C3003F030
:101D000082FB08B16FF0120007B030BD0125CEE7AD
:101D10000023012182F0400203A8CDE90213ADF8AF
:101D20000030CDF804D08DF8002005938DF80C100C
:101D3000049503F03BFC0028E6D103F069FC002881
:101D4000E2DBC307F9D4BCE7A5550000024B0B60EA
:101D500001231360704700BF8415002000487047BE
:101D60003860000010B503F0F4FE034C206003F06F
:101D7000ECFE6060002010BD841500204FF0804212
:101D8000D2F81015D2F8103501F01E0123F01F0310
:101D90000B4343F00103C2F81035024B00221A70C6
:101DA000704700BF6C1700204FF08053D3F83031DC
:101DB000082B22D14FF08042D2F8101511F001000B
:101DC0001CD0D2F8100501F01E0120F01F000843BE
:101DD000C2F81005D2F8080158B1D2F8103523F036
:101DE0001F030B4343F00103C2F810356FF08B0063
:101DF0007047034B01221A7070470020704700BFE4
:101E00006C1700202DE9F8430E4630461946174658
:101E10001C4603F02DFC30B346EA040515F003051B
:101E200021D11CB3DFF84C902B19032BA6EB05082E
:101E300007D80F4AD2F80034DB07FBD50020BDE8F5
:101E4000F883FFF7B1FF58B97B1B4046196800F0D3
:101E50006DFD99F800300BB1FFF790FF043DE3E70B
:101E60006FF08B00EBE76FF01500E8E72046E6E740
:101E700000E001406C1700202DE9F0410D461646A8
:101E800003F063FE31460746284603F0F1FB28B312
:101E9000B5FBF7F307FB135303BBB6FBF7F407FBE4
:101EA0001464DCB9BE4213D303F04FFEDFF8348074
:101EB0000746FFF779FF044668B9284600F016FD8B
:101EC00098F800300BB1FFF759FFF61B3D44F0D1F5
:101ED0002046BDE8F0816FF08B04F9E76FF0150440
:101EE000F6E700BF6C17002010B501238340114AAC
:101EF000BFF35B8FDC4352E8001F01EA040C42E8A9
:101F000000CEBEF1000FF6D1BFF35B8F4FF48032ED
:101F100002FA00F002F1804202F58052C2F8080392
:101F2000BFF35F8FBFF36F8F0B4214BF0120002000
:101F300010BD00BF9015002019B3BFF35B8F0123C4
:101F4000104A834052E8001F194342E8001CBCF1CC
:101F5000000FF7D1BFF35B8F0B4A4FF48033834000
:101F6000C2F80433094BBFF35B8F1B68BFF35B8F71
:101F700023FA00F0C30742BF054B4FF40032C3F809
:101F80000021704790150020001001408C150020A2
:101F900000E100E00D4B1868010A0006BFF35F8FF7
:101FA0000B4BD3F80435181841F10001B3F5801F2D
:101FB0000AD2084BD3E90023904271EB030303D20A
:101FC00010F1807041F10001704700BF94150020AE
:101FD00000100140880000202DE9F04F2DED028B0C
:101FE00085B0164698460546FFF77EFF08EE100AB4
:101FF000FFF7D0FFB04271EB08037BD2474B301A9A
:1020000068EB0101984271F1000380F08480444B39
:1020100003EB0513D3E902ABD84508BF564551D0B1
:102020004FEA850909F1804905F1500709F588391A
:10203000BF004FF4803101FA05F3BFB226F07F42B2
:1020400007F180470193D9F84005364B07F58837EB
:102050001446D3F80415401A20F07F4021F07F4C3D
:102060000128C9F840C507D1CDE90221132003F0AA
:10207000BDFDDDE902212B4B01F1020CA4EB0C00AC
:1020800020F07F40B0F5000F88BF64460020386024
:1020900038680198C3F8440324F07F40C9F840052C
:1020A000D3F80405814206D0201A023820F07F4080
:1020B000B0F5000F1CD8A41A24F07F4414EB060AD4
:1020C00048F1000B164910982B0101EB0512C2E9EB
:1020D00002ABC850119B53600024284618EE101A1A
:1020E000FFF72AFF204605B0BDEC028BBDE8F08F5C
:1020F0002046AEE701230C4ABFF35B8FAB4052E8AA
:10210000001F194342E800100028F8D1BFF35B8F8D
:10211000B246C346D6E76FF01504DEE701000001C2
:1021200090000020001001408C15002073B51A4B60
:102130001A4D00244FF0FF304FF0FF31C5F808452D
:10214000C3E902014FF48033C5F80433144B02266F
:102150004FF400320121C5F804631120C3F8802137
:102160002246FEF74DFF1120FEF718FF01230D4A0E
:10217000AB602B601360D5F804250B4B0093013244
:10218000234601942046FFF727FF3046FFF7FEFA6B
:10219000204602B070BD00BF90000020001001403A
:1021A00000E100E090150020AD2100002DE9F3478B
:1021B0001E46244B22F07F47D3E90098C3E900264E
:1021C000A7F50013B3F5400F0546144637D21E4B52
:1021D0001A68130A1206D01943F100011B4BC3E918
:1021E00000014FF0010A0023621C0193184B009379
:1021F000284646F10003FFF7EFFEB04508BFA145B2
:1022000014BF0120002000F083FFAB0003F18043E6
:1022100003F58833D3F8402597420DD1BAF1000F6A
:1022200003D14FF40002C3F840250A4B4FF480302D
:1022300000FA05F5C3F8445302B0BDE8F0874FF04B
:10224000000AD0E7A000002094150020880000209C
:10225000AD210000001001402DE9F743364CD4F8C1
:1022600004339A070BD5D4F8043143B1334A002321
:10227000C4F80431D4F804311368013313604FF00B
:102280002003EFF3118283F31288BFF36F8FD4F82A
:102290000433DB0312D5BFF35B8F294B53E8001FD8
:1022A00021F0010043E80006002EF7D1BFF35B8F59
:1022B000002939D1D4F84031002B35D1002382F3E5
:1022C0001188BFF36F8F63B3FFF764FE4FF02003F5
:1022D000EFF3118C83F31288BFF36F8F194BD3E99F
:1022E0000267B04271EB070228BF4FF0FF384FF092
:1022F000000221BF4FF0FF39D3E90015C3E902897D
:102300001A6026BF4FF48033C4F8483311468CF36B
:102310001188BFF36F8F21B1009532463B460020F4
:10232000884703B0BDE8F0830023C4F84031D4F8F7
:1023300040310123C3E700BF001001409415002085
:102340008C1500209000002000F01F01400901289A
:10235000044B4FF0010218BF4FF0A0438A40C3F86E
:102360000C2570470003005000F48053002B30B55B
:102370001CBF00210122C0F3811500F01F0410F0E2
:10238000200F00F4706040EA8500064B40EA01002F
:1023900008BF4FF0A04304F5E07140EA420243F861
:1023A000212030BD0003005000F01F01400901282A
:1023B000044B4FF0010218BF4FF0A0438A40C3F80E
:1023C00008257047000300500C4A30B513680C4DC7
:1023D000002405EB0311D1F80818C9B221B904B1E2
:1023E00013600360002008E00133072B4FF0010465
:1023F000EFD9036013606FF01B0030BD981500200B
:1024000000E0014030B5816885B0103921F0070443
:10241000054602F0B2FF10220146684603F027F895
:1024200007491022684603F017F810236A46214630
:10243000284602F066FF003818BF012005B030BD05
:10244000DE61000030B50C46816887B0102302AA17
:102450001039054602F039FF002802DA012007B0E2
:1024600030BD102202A9284603F061FA90B303237D
:102470002370284603F06CFA012301460DF1070290
:10248000284602F022FF0028E8DB9DF8073003F021
:102490000F021B096270237101220DF1070128460A
:1024A00003F045FA10B96378042B03D90123637054
:1024B00000232371AA68183A22F00702083AA11CE7
:1024C000284603F05FFA0028C8D1E11C284603F033
:1024D000B3FAC4E70449102202A802F094FF0028CE
:1024E00014BF02230123C3E7DE6100002DE9F0439E
:1024F00085B06946032003F0A5FA002836D102A969
:10250000012003F09FFA01282ED103238DF8083013
:102510008DF80B309DF800509DF808609DF8037011
:102520009DF80B809DF80290164A002410782946E9
:1025300003F014FAF0B15078314603F00FFAC8B145
:102540009378042B01D0BB4214D1D378042B01D053
:1025500043450FD11379042B0AD15079831E022BE6
:1025600004D805B0BDE8F0830028D3D0FF20F8E7F9
:102570004B45F2D00134032C02F10602D6D10120E2
:10258000EFE700BF906200004FF08053D3F8302196
:10259000082A06D1D3F83431052B02D8024AD05C80
:1025A00070470020704700BFA8620000024AD2F8BE
:1025B0000034002BFBD0704700E0014010B503F061
:1025C00066FA40B14FF080430022C3F80C21C3F8F3
:1025D0001021C3F8382503F05AFA002846D04FF0EE
:1025E0008052654BD2F80414C3F82015D2F80814B1
:1025F000C3F82415D2F80C14C3F82815D2F8101417
:10260000C3F82C15D2F81414C3F83015D2F81814E6
:10261000C3F83415D2F81C14C3F84015D2F82014AE
:10262000C3F84415D2F82414C3F84815D2F8281476
:10263000C3F84C15D2F82C14C3F85015D2F8301446
:10264000C3F85415D2F83414C3F86015D2F838140E
:10265000C3F86415D2F83C14C3F86815D2F84014D6
:10266000C3F86C15D2F84424C3F87025FFF78CFF2B
:1026700018B1424B424AC3F88C26FFF785FF18B1C8
:10268000404BFB22C3F81825FFF77EFF70B14FF0D7
:1026900080414FF08053D1F8E42ED3F8583222F025
:1026A0000F0203F00F031343C1F8E43EFFF76CFF82
:1026B00020B1354B4FF40072C3F8402603F0E7F920
:1026C00048B14FF08043D3F80024D20744BF6FF0E5
:1026D0000102C3F800242D4AD2F8883043F4700375
:1026E000C2F88830BFF34F8FBFF36F8F4FF0805326
:1026F000D3F83021082A0ED1D3F83431052B02D873
:10270000234AD35C3BB14FF01023D3F808224FF09B
:102710008043C3F858254FF01023D3F80022002A35
:1027200003DBD3F80432002B22DA1A4901234FF0DD
:102730001020C1F804351224FFF738FFC0F800421A
:10274000FFF734FFC0F80442FFF730FF0023C1F861
:102750000435FFF72BFFBFF34F8F0C490E4BCA68B0
:1027600002F4E0621343CB60BFF34F8F00BFFDE77D
:102770000A4B0B4A1A6010BD00C0004000500040D8
:102780004881030000F000400090024000ED00E0AE
:10279000A262000000E001400400FA050C000020E5
:1027A0000090D003F7B5044618B1012829D003B032
:1027B000F0BD4FF080430222C3F80823C3F80401A0
:1027C000D3F804210122DA6001239C428DF80730FE
:1027D00014BF00250DF1070542F210774FF0804637
:1027E000D4B1012CE3D125B1D6F80C3403F00103A8
:1027F0002B70D6F80C34DB0318D4134B00225A711B
:10280000D5E74FF080430022C3F80803C3F8002146
:10281000D3F800215860D7E725B1D6F8183403F073
:1028200003032B60D6F81834DA03C0D52DB9012084
:1028300003F037F9013FD3D103E09DF80730012BB6
:10284000F5D0012CD9D0B2E79C150020044B1A79A1
:1028500022B9012218609A800248704702487047E6
:102860009C1500200000AD0B0C00AD0B4FF0804319
:1028700010B5D3F800216AB10022C3F80021D3F8C3
:1028800000210122C3F80823114B587910B95A715D
:102890001B6898474FF08043D3F8042172B100229F
:1028A000C3F80421D3F80421D3F81824D3F818145A
:1028B000920704D10122C3F818259A6010BD0222A4
:1028C000C3F80823024BBDE810401B6801201847DD
:1028D0009C150020044AD2F80034DB07FBD50160C8
:1028E000BFF35F8F704700BF00E001404FF080539F
:1028F0001A69B0FBF2F302FB130373B9084B02220F
:10290000C3F80425C3F80805D3F80024D207FBD583
:1029100000220448C3F8042570470348704700BFED
:1029200000E001400000AD0B0A00AD0B10B5054CF6
:102930000123C4F80435FFF7CDFF0023C4F80435A4
:1029400010BD00BF00E00140036803F01F025B09F7
:10295000012B0260024818BF4FF0A040704700BF33
:102960000003005070B500F06044B4F1005F4BD13B
:10297000840749D1264C94F83050012D01D09D4256
:1029800044D12568002D2ED0A6682EB3E060616189
:10299000E26100261F4C022B0BBFC4F81025C4F8BF
:1029A0000425C4F81405C4F8080507BFC4F81815B1
:1029B0000823C4F80C150423BDB903F1804303F5C3
:1029C00024330122C4F800511A60124AD2F80031AF
:1029D000002BFBD0104870BDA0602161A26184F87B
:1029E00030300126D6E72E46D4E7002EF2D0094932
:1029F00003F18043002203F52433C1F800210122B2
:102A0000C1F804231A60E5E70448E4E70448E2E774
:102A1000A4150020009002400000AD0B0A00AD0B91
:102A20000B00AD0B38B5074D6424D5F8003133B930
:102A30000A2003F036F8013CF7D1034838BD0348BB
:102A4000FCE700BF009002400700AD0B0000AD0B9B
:102A5000084B9A685A621A699A629A69DA62DA6865
:102A60009A6032B15A691A61DA699A610022DA60B1
:102A700070477047A41500200E4B0238D3F83C264F
:102A8000D3F83836072813D8DFE800F0110F0D0B04
:102A90000A080604100EC871100C8871100A4871DB
:102AA0000A711A0ECA701A0C8A701A0A4A700B70D0
:102AB000704700BF00900240023807281FD8DFE8A7
:102AC00000F02927251123211F04CB791B068A79C1
:102AD00043EA02434A7943EA02230A7913430E4A3E
:102AE000C2F83C36CB781B068A7843EA02434A7820
:102AF00043EA02230A781343074AC2F8383670477C
:102B00000023E4E70023E5E70023E6E70023EBE703
:102B10000023ECE70023EDE700900240F7B56F4E8D
:102B200096F8303004461546002B40F0D280C27C27
:102B30001AB1037D002B40F084802379FF2B00F035
:102B4000CB806079FF2800F0C780A079FF2800F0D3
:102B5000C380E079FF2800F0BF80002A42D101A89D
:102B60000193FFF7F1FE019B03F5E07340F202379A
:102B700040F8237001A863790193FFF7E5FE019BFC
:102B800003F5E07340F8237001A8A3790193FFF7E0
:102B9000DBFE019B03F5E07340F8237001A8E379A5
:102BA0000193FFF7D1FE019B03F5E07340F823701A
:102BB000237AFF2B08D001A80193FFF7C5FE019BE4
:102BC00003F5E07340F82370637AFF2B0AD001A865
:102BD0000193FFF7B9FE019B03F5E07340F2023267
:102BE00040F82320237D63BB2379FF2B18BF1A46AF
:102BF0003B4B08BF4FF0FF32C3F824256279FF2A10
:102C000008BF4FF0FF32C3F82825A279FF2A08BF7A
:102C10004FF0FF32C3F83025E279FF2A08BF4FF0AA
:102C2000FF32C3F83425227AFF2A08BF4FF0FF3263
:102C3000C3F83825627AFF2A08BF4FF0FF32C3F885
:102C40003C25274A2368C2F84035237BE77AA07ADF
:102C50009B0143EAC7030343607B002814BF802025
:102C600000200343C2F84435D2F80036A07B94F824
:102C700010C0677C23F07F4323F0FF030343E07B16
:102C800043EA4C63002814BF4FF08070002043EAF1
:102C900007730343C2F80036E37C86F83130012322
:102CA000C6E90015C2F8083311B12920FEF776F9FC
:102CB0000B4B01220021C6E9021186F83020C3F82F
:102CC0000025C3F800111A6003B0BDE8F040FFF71B
:102CD000A9BE044803B0F0BD0348FBE7A4150020DB
:102CE000009002400500AD0B0400AD0B70B514461A
:102CF000194A92F83020012A05462BD1174E00229E
:102D0000C6F8002111B14078FFF7D6FE0123C6F8BE
:102D10000833AB786A781B0343EA02232A7813430B
:102D2000EA7843EA42332A7943EA82336A7943EA0A
:102D3000C233C6F83436FFF775FE094B98420AD005
:102D40000023C6F800311CB168782146FFF794FED5
:102D5000044800E0044870BDA41500200090024023
:102D60000700AD0B0000AD0B0B00AD0B1FB5002332
:102D70008DF807300C4B0DF10702186802909B8804
:102D8000ADF80C30114602A8FFF7B0FF074B984290
:102D900006D19DF8073013F0010F054B18BF1846F8
:102DA00005B05DF804FB00BF805E00000000AD0BC5
:102DB0000B00AD0B2DE9F0412920FEF7FFF8244B65
:102DC000244DD3F8342602F44032B2F5803F04BFDC
:102DD000214AC3F834264FF080510122C3F808235A
:102DE0001A61D1F83011082908BF5A65184B002222
:102DF000C3F80025C3F8002195F831201ABBD3F899
:102E00002405D3F82885D3F83075D3F83465D3F882
:102E10003845D3F83C15C0B202F09FFE5FFA88F047
:102E200002F09BFEF8B202F098FEF0B202F095FEBE
:102E3000E0B2FF28C9B201D002F08FFEFF2902D014
:102E4000084602F08AFE002385F83030BDE8F081A4
:102E500000900240A4150020000103008B0710B56C
:102E600020D1124A14681CB192F83030012B1BD1CA
:102E7000042382F830300E4BC3F81C150021C3F830
:102E80002005C3F800110121D96044B9D3F800111D
:102E90000029FBD0012382F83030064810BDC3F86A
:102EA0000413FAE70448F9E70448F7E7A4150020FB
:102EB000009002400000AD0B0A00AD0B0B00AD0B03
:102EC000174BD3F8002110B5E2B10022154CC3F81E
:102ED000002194F83020032A15D0042A15D0022AA4
:102EE00004D1012384F82030FFF7B2FDA36813B9A1
:102EF000012384F83030D4E90031002098470023C2
:102F000084F8203010BD0223ECE7032284F820204F
:102F1000D3F81C256262D3F8203584F82830E5E721
:102F200000900240A41500200E4B70B553F82040CD
:102F3000013053F82060A64200D870BDD4E90035B6
:102F40002846984765B1EB6830B10028B8BF4042C9
:102F5000FF28A8BFFF2018705A7842F001025A706B
:102F60000834E8E74060000070B5054610B9002459
:102F7000204670BD0378002BF9D00E4C0E4EB442A3
:102F800008D10C4CB442F2D0204602F0FFFD50B9FB
:102F90001834F7E7204602F0F9FD10B12368AB4280
:102FA000E6D01834EBE72168284602F020FA002822
:102FB000EED1DDE78C5C0000D45C000008B5094B65
:102FC000012202201A70FFF7AFFF02F013FE032068
:102FD000FFF7AAFFFDF794F8034A137B23F00103E0
:102FE000137308BD6D170020D815002008B50348DD
:102FF000034A0021121A02F0EFFD08BD88000020EC
:103000007017002008B5194B83F30888184C6369C2
:1030100043F4007363610025E02384F82230E577F0
:1030200025766576A57684F82050636A43F4E0231C
:10303000636284F82350FEF771F9FDF79FFF4FF0AC
:10304000FF33A362E362FEF763FAFEF7F3F902F0DF
:103050009CFD2846FFF768FF0120FFF765FF054844
:103060002B462A462946FEF73BF800BFC047002002
:1030700000ED00E0BD2F000008B50648064A0749EC
:10308000121A02F0ABFDBDE80840054A05490648A2
:1030900002F0A4BD0000002084000020B062000007
:1030A00000000000B062000000000020034B1B681D
:1030B0000BB902F031BB0020704700BF4C16002056
:1030C000084B10B51C689C4208BF0024FFF7EEFFB8
:1030D00024B1E368181A20EAE07010BD6FF00040D8
:1030E000FBE700BF10000020036840B1074A5268A8
:1030F000904204D01BB1DA68C1680A44DA604268C1
:1031000013605A600023C0E90033704710000020AC
:103110002DE9F0414FF02003EFF3118483F312887F
:10312000BFF36F8F1E4EDFF880801E4D3060D8F8E1
:10313000000032684045D5E9001705D020B1C368CA
:10314000934213DD9B1AC360511847EBE272C5E945
:10315000001200253560FFF7B3FF294602F0DBFAC5
:1031600084F31188BFF36F8FBDE8F081591847EBE6
:10317000E377D31A33600023C360C5E90017FFF774
:10318000B3FF84F31188BFF36F8F836898474FF0C4
:103190002003EFF3118483F31288BFF36F8FC6E728
:1031A0004C160020A80000201000002010B50A4C8A
:1031B00023681BB101232360002010BD00F052F8EA
:1031C0000028F7D00138062803D8044B53F8200014
:1031D00010BD034810BD00BF501600205460000011
:1031E000FE8FFFFFBFF34F8F0549064BCA6802F4FD
:1031F000E0621343CB60BFF34F8F00BFFDE700BF1A
:1032000000ED00E00400FA0510B40A4B0A490B4C2B
:103210004FF0FE32C3F800244968C3F80424C3F811
:103220000824C3F80C240023C4F800355DF8044BCF
:10323000084700BF00B002501800002000A0025054
:10324000D0E90012014BC3E90012704718000020BA
:1032500038B131B1014400220346013088421A706E
:10326000FAD1704738B500F02FF820B1032400F0F0
:1032700063F8204638BD00F031F898B900F0ACF89A
:1032800098B90F4DD5F828391B0EF02B08D1D5F879
:10329000242A0C4B9A420AD0072400F017F8E6E7DC
:1032A0000624FAE70424204638BD0024F5E701206F
:1032B00000F092F804460028F7D1C5F80C0AD8E7C8
:1032C00000B002500000E02000207047002070474E
:1032D000014BC3F8040A704700B0025010B5114802
:1032E00000F048F800B110BD0F4800F043F8002886
:1032F000F9D10E4C204600F03DF80028F3D10C4BDC
:103300000C481C6000F036F801460028EBD100F0B4
:103310002DF8044608B1204610BD00F03FF82046C5
:10332000FAE700BF2C000020200000202800002029
:10333000300000202400002008B5084800F024F8E0
:10334000074800F021F8074800F01EF8064800F092
:103350001BF8BDE8084000F00BB800BF2C000020AF
:1033600020000020280000202400002000207047BA
:10337000704700BF08B5034B02681B681068984788
:10338000002008BD3C00002008B5034B02685B68C4
:1033900010689847002008BD3C00002070B5094C1B
:1033A000094D2069AB68984718B1084B08485B681D
:1033B0009847084AEB68206900211160BDE8704019
:1033C000184700BF4C0000203C00002018000020DF
:1033D000706000005416002070B51B4D1B4E044653
:1033E000B26828699047F8B95CB1194C2368B3B149
:1033F000012B1BD0013B23602869F368984700200C
:1034000070BD134C216841B9124B0122C3F800254D
:10341000114AD2F81039002BFBD101312160F36839
:1034200028699847002070BD0C4870BD0A4AD2F840
:103430001039002BFBD1074A6FF07E40C2F80035EF
:10344000FFF746FF2368D5E74C0000203C00002032
:103450005416002000A0025000B00250E98FFFFF78
:1034600010B5044630B16368DB0602D50023236043
:10347000636010BD024B03485B689847F3E700BFE9
:103480001800002090600000B0B1436893B1DB06E3
:103490000ED5012350E8002F194640E8001C9CF08F
:1034A000000FF7D1012AF5D0BFF35F8F00207047DE
:1034B00003487047034870476FF4E040704700BF0F
:1034C000E98FFFFFEA8FFFFF68B143683BB1DB067E
:1034D00007D5BFF35F8F002303601846704703488A
:1034E0007047034870476FF4E0407047EA8FFFFF72
:1034F000E98FFFFF10B5044620B10022112322609E
:10350000636010BD0148FFF77FFEF6E7B86000007A
:1035100030B10268034B04489A4208BF002070474C
:1035200002487047DD55AABB8208F0007108F00020
:1035300038B50D460446B0B1A0220021043002F097
:1035400074FB95B10822294604F1640002F073FB74
:10355000082205F1200104F1840002F06CFB044B09
:103560002360002038BD0348FCE70348FAE700BFAA
:10357000DD55AABB7108F0008308F0002DE9F74380
:1035800005460E4699461146FFF7C2FF044600283D
:1035900040F08480002E00F08580002900F08480B7
:1035A000B9F1200F40F0828005F14404082205F1B2
:1035B0000408204602F03FFB05F1240708223146AB
:1035C000404602F038FB06F120010822384602F09E
:1035D00032FB02A94FF4807041F8049D02F01FFBFA
:1035E000002865D1334A4FF4807313600121936042
:1035F0000823314A00F02EFB0121084605232F4AFB
:1036000000F028FB0823424601211C2000F022FB89
:1036100008233A460121032000F01CFB2246082320
:103620000121022000F016FB0823254A01211A205F
:1036300000F010FB0523234A01211B2000F00AFBA8
:103640000823214A0121142000F004FB08231F4A0B
:103650000121152000F0FEFA082305F16402012182
:10366000162000F0F7FA082305F184020121172043
:1036700000F0F0FA0823164A01210B2000F0EAFAC4
:1036800000F044FB0446019800F0D2FA114B002CE4
:1036900018BF1C46A421284602F0C9FA204603B0F0
:1036A000BDE8F0830C4CF9E70C4CF7E70C4CF5E760
:1036B000084CEFE790B002501C61000094610000DC
:1036C000DC6000008061000040610000606100007B
:1036D000FC6000008408F0007608F0008008F0002C
:1036E0008108F0000C4BC2691A60826943F8042C0F
:1036F000426943F8082C026943F80C2CC26843F86D
:10370000102C826843F8142C426843F8182C026885
:1037100043F81C2C704700BF5CB602500C4B1B6872
:10372000C3610C4B1B6883610B4B1B6843610B4BE4
:103730001B6803610A4B1B68C3600A4B1B688360EC
:10374000094B1B684360094B1B680360704700BF4F
:103750005CB6025058B6025054B6025050B60250F1
:103760004CB6025048B6025044B6025040B6025021
:1037700030B10268034B04489A4208BF00207047EA
:1037800002487047DD55AABB0202F0000002F000BB
:1037900038B5044668B1051D7021284602F047FA85
:1037A00028462022044902F03EFA044B2360002000
:1037B00038BD0348FCE700BFA8610000DD55AABB87
:1037C0000002F0002DE9F043284B04460E46154652
:1037D0000FCB85B06F4687E80F002DB94FF0000979
:1037E000484605B0BDE8F0832046FFF7C1FF81469B
:1037F0000028F5D1231D0193636AA3BB236F8BB10E
:10380000C3F14008A84528BFA84604F1300031465E
:103810001844424602F007FA236F434446442367A4
:10382000A5EB0805226F402A06D104F13001384685
:1038300000F0AEFB0023236705F03F0835F03F059D
:1038400005D031462A46384600F0A2FB2E44B8F196
:10385000000FC3D04246314604F1300002F0E3F9D4
:10386000C4F87080BCE7DFF80890B9E7705E00002C
:103870000C02F0002DE9FF41144B04460E460FCB1D
:103880006F4687E80F002046FFF772FF8046B0B909
:10389000CEB1636A251D01953BB901236362226F96
:1038A00004F13001384600F073FB2B46043E24340B
:1038B00053F8042B12BAA34246F8042FF8D140461D
:1038C00004B0BDE8F081DFF80880F8E7705E000022
:1038D0000502F000084B1B681B0EF02B08D1074BAC
:1038E0001A68074B9A4205D1064B002018607047B2
:1038F000052070470620704728B9025024BA0250AC
:103900000000E0200CBA0250002230B549001346F6
:10391000023840F6FC7502F1A05404F52C44A400D2
:10392000904202F10102CABF236025605B181E2A83
:10393000F1D1044A13600B445360034B034A1A60ED
:1039400030BD00BF78B0025084B0025020F80F00A4
:1039500030B51E4B85B01A46196800910099CC0706
:10396000FAD500F1A05000F52C40800001681368E2
:103970000193019BD807FAD5154B164C1868164DC4
:103980001F30202390FBF3F00138002810DA0023C9
:103990000130400153B1A0F120014FF00042134229
:1039A00004D1013888424FEA5202F8D105B030BD47
:1039B00013680393039BDB07FAD5431823602B6836
:1039C0000293029B002BE3D10138DEE7B4B0025032
:1039D000ACB00250E4B00250DCB00250F0B51D684B
:1039E00085B001F01F040DB91F2C25D1154D2E46B1
:1039F0002F680197019FFF07FAD500F1A05000F54D
:103A00002C408000006835680395039DED07FAD5CA
:103A10000D4D00EB611028600C48006802901F2CCF
:103A200018BFC94302980FBF106001F01F0100FAD0
:103A300001F111600021196010684300C00F13608C
:103A400005B0F0BDB4B00250E4B00250DCB002509A
:103A50000C4B18603F3020F03F0089014030586027
:103A60009960D9601961596199611C3306481960E0
:103A700082B002680192019AD207FAD5196002B0A9
:103A8000704700BF90B00250B4B0025038B5A0F1FA
:103A90002003B3F5426F05462CD88F2826D800F1B5
:103AA000470300F16604DB064FEA541400D00134EA
:103AB00064013F34A409013411B1A1421AD30C4668
:103AC000E3004FF48050B0FBF3F0202828BF202003
:103AD00002B11060084B01221A602146FFF714FF63
:103AE00028462146FFF7B4FF002038BD00F11F042F
:103AF0006409DDE70148F8E71CB802502221F00014
:103B0000F0B5454B89B01D461C680194019CE40743
:103B1000FAD5424BDFF80CE1DFF80CC113449B00EF
:103B200000241A680B181E2B88BFC0F11E011F321B
:103B30000B1852095343B3F5806F82BF4FF4806175
:103B4000B1FBF2F1091A00F1A05000F52C40274614
:103B5000A14233DC2B680493049BDB07FAD5304B7E
:103B60001B68296805910599CF07FAD52D4C2E4978
:103B7000236000231E46934203F1010040D120F050
:103B800001022948194600268A423CD82968069134
:103B90000699CE07FAD5254909682868079007983D
:103BA000C007FAD52160204800210C468B422DD158
:103BB0001D4900209A422CD809B0F0BD2B68029311
:103BC000029BDB07FAD503199B001B682E6803963E
:103BD000039EF607FAD5CEF800300023934203F196
:103BE000010306D1164623F00103B34204D8013481
:103BF000AEE7CCF80070F1E7CCF800700136F4E7DE
:103C00000E600346B7E706600131BDE7046001318D
:103C1000CCE708600133CDE7B4B0025024AC001407
:103C20007CB00250D4B00250D8B0025078B00250EC
:103C300008B540B1202801464FF0070228BF2021D7
:103C40000020FFF75DFF024B00221A6008BD00BF95
:103C50001CB80250F0B5294D85B02C462E68009650
:103C6000009EF607FAD500F1A05000F52C40800028
:103C70000568206801900198C707FAD52048214FB0
:103C8000056002EB8306B24229D15A1C1D4E22F078
:103C9000010200279A4227D823680293029BDE077D
:103CA000FAD5194B0B449B001B681F335B099A42E2
:103CB00013D2216803910399C907FAD5154400214D
:103CC0009B1A104A056008468B4210D85A1C0D49B1
:103CD00022F0010200209A420CD805B0F0BD52F843
:103CE00004CBC7F800C0CEE737600133D2E71060DD
:103CF0000131E9E708600133EDE700BFB4B00250DD
:103D0000D4B00250D8B0025024AC00142DE9F041D8
:103D1000814B1D6898682033A0B01E461A68019236
:103D2000019AD707FAD57D4B7D4A1A603268029214
:103D3000029AD407FAD57B4A1A607B4A1446116866
:103D400003910399C907FAD5784A1168C1F3402154
:103D500037680497049FFF07FAD5754F1F602768DF
:103D60000597059FFF07FAD51768002900F0CF8057
:103D7000B90540F1CC80316806910699CF07FAD594
:103D80006C491960216807910799C907FAD511682C
:103D9000C1F3402137680897089FFF07FAD5664F9F
:103DA0001F6027680997099FFF07FAD51268002945
:103DB00000F0AF80910540F1AC8032680A920A9A17
:103DC000D207FAD5564A1A6032680B920B9AD70777
:103DD000FAD55A4A1A6031680C910C99CC07FAD579
:103DE0005749196031680D910D99C907FAD55549A0
:103DF000196031680E910E99CF07FAD552491960B2
:103E000031680F910F99CC07FAD550491960504B82
:103E10001E46196810911099C907FAD53F4C4D4BB1
:103E2000236033681193119BDB07FAD54A4B23605B
:103E300033681293129BDF07FAD5484B23603A4B45
:103E40009846196813911399C907FAD5324F38600B
:103E500033681493149BDB07FAD5226033681593FB
:103E6000159BD807FAD53E4B236033681693169BF3
:103E7000D907FAD53B4B236033681793179BDA07B2
:103E8000FAD5394B236033681893189BDB07FAD5B2
:103E9000364B236033681993199BD807FAD5344BF6
:103EA000236033681A931A9BD907FAD5314B2360E4
:103EB00033681B931B9BDA07FAD52F4B236000F066
:103EC0001DFC08BBD8F800301C931C9BDB07F9D500
:103ED0003D6033681D931D9BD907FAD5274B23609E
:103EE00033681E931E9BDA07FAD5254B2360D8F85A
:103EF00000301F931F9BDB07F9D50C4B1B6813F495
:103F0000805F204B08BF184620B0BDE8F0811E48F6
:103F1000FAE71E48F8E700BF90B0025080B00250A8
:103F200000100251C01F7229B4B0025088B0025074
:103F3000C0CF0129C01F0E29C03F002940010249FE
:103F4000003184A800001649400108A18044088877
:103F5000B0B00250C044708880077A41C0077E41EB
:103F600000006A498006164940006E49000200219F
:103F700000822021408220218082242140A161A151
:103F800000C861510308F1000108F1000208F100C6
:103F90002DE9F74F314B44688046924699461A689E
:103FA000002AFCD12E4B9B461A68002AFCD14FF008
:103FB000FF30019100F094FC802000F097FC294D27
:103FC000294A2A4F2A4E012307202B60A2F59E7210
:103FD000C2F83C011360636A3B60A36A3360D8F89F
:103FE000003042F8043CD8F8083020469847019940
:103FF000D9F80030002BFBD1BAF1000F20D11D4BB6
:1040000004221A60D9F80030002BFBD1DBF800A0A5
:10401000BAF1000FFAD1D8F80C30204698473B6827
:1040200063623368A362144BC3F800A0C3F844A1D1
:10403000D9F80030002BFBD12B6003B0BDE8F08F26
:10404000236A012B04BF0C4A13600C4B40201960FB
:10405000C3F804A000F050FCD4E700BF10B9025030
:1040600020BC025018B8025000B90250CCB7025020
:10407000D0B70250C8B7025084B6025028BC0250D4
:1040800010B5544B98B019461A680192019AD2079C
:10409000FAD5514B514A1A600A680292029AD40723
:1040A000FAD54F4A1A600A680392039AD007FAD5E4
:1040B0004C4818600A680492049AD207FAD54A4A12
:1040C0001A600A680592059AD407FAD5474A1A6019
:1040D0000A680692069AD207FAD5454A1A600A6813
:1040E0000792079AD407FAD5424A1A600A680892DA
:1040F000089AD207FAD5404A1A600A680992099AC2
:10410000D407FAD53D4A1A600A680A920A9AD20779
:10411000FAD53B4A1A600A680B920B9AD407FAD573
:10412000384A1A600A680C920C9AD207FAD5364AB5
:104130001A600A680D920D9AD407FAD5334A1A60AC
:104140000A680E920E9AD207FAD5314A1A600A68A6
:104150000F920F9AD407FAD52E4A1A600A68109265
:10416000109AD207FAD52C4A1A601A4B19461C68C5
:104170001194119CE407FAD5174B18600868129047
:104180001298C407FAD51A600A681392139AD007D6
:10419000FAD5124A1A600A681492149AD207FAD50C
:1041A0001E4A1A600A681592159AD407FAD51C4A55
:1041B0001A600A681692169AD007FAD5194A1A6038
:1041C0000A681792179AD207FAD5174A1A6018B0D8
:1041D00010BD00BFB0B0025080B002500093652106
:1041E00000043190409665900083612100C3302126
:1041F00000C364900081619000461021008111216C
:104200000041442100C320290C4610C800863121FA
:1042100000C3602140C128294096652100133190D8
:1042200040962529594614C84004324910B5494BD7
:1042300094B019461A680092009AD207FAD5464BF4
:10424000464A1A600A680192019AD407FAD5444A8C
:104250001A600A680292029AD007FAD5414818609B
:104260000A680392039AD207FAD53F4A1A600A688D
:104270000492049AD407FAD53C4A1A600A68059257
:10428000059AD207FAD53A4A1A600A680692069A3F
:10429000D407FAD5374A1A600A680792079AD207F4
:1042A000FAD5354A1A600A680892089AD407FAD5EE
:1042B000324A1A600A680992099AD207FAD5304A36
:1042C0001A600A680A920A9AD407FAD52D4A1A6027
:1042D0000A680B920B9AD207FAD52B4A1A600A6821
:1042E0000C920C9AD407FAD5284A1A600A680D92E3
:1042F0000D9AD207FAD5264A1A600A680E920E9ACB
:10430000D407FAD5234A1A600A680F920F9AD20787
:10431000FAD5214A1A600F4B19461C681094109C5C
:10432000E407FAD50C4B1860086811901198C4077F
:10433000FAD51A600A681292129AD007FAD5174A6B
:104340001A600A681392139AD207FAD5144A1A60AF
:1043500014B010BDB0B0025080B002508090652102
:10436000000409904096659080806121802008219A
:10437000802064900081619000461021008111210D
:104380000041442180202029024610C800860921CE
:1043900080206021402128294096652140962529CA
:1043A000594614C810B5504B96B01C461A68019275
:1043B000019AD207FAD54D4B4D4A1A6022680292F3
:1043C000029AD207FAD54B4A1A604B4A42EA804019
:1043D00022680392039AD207FAD5186022680492E1
:1043E000049AD007FAD5454A1A60A2F5800242EA3B
:1043F000814122680592059AD207FAD51960226890
:104400000692069AD007FAD53D4A1A6022680792AA
:10441000079AD107FAD53B4A1A6022680892089A8F
:10442000D207FAD5384A1A6022680992099AD00749
:10443000FAD5364A1A6022680A920A9AD107FAD542
:10444000334A1A6022680B920B9AD207FAD5314A86
:104450001A6022680C920C9AD007FAD52E4A1A607C
:1044600022680D920D9AD107FAD52C4A1A6022685B
:104470000E920E9AD207FAD5294A1A6022680F9234
:104480000F9AD007FAD5274A1A602168109110991F
:10449000C907FAD51A60144B1A4619681191119977
:1044A000C807FAD5114B2049196011681291129969
:1044B000C907FAD51D491960116813911399CC07E2
:1044C000FAD50B491960116814911499C807FAD5E7
:1044D00017491960116815911599C907FAD5154A38
:1044E0001A6016B010BD00BFB0B0025080B00250CC
:1044F0004004419000862929D81001C840144190F9
:1045000040142129401465210034409000310C9062
:10451000C0400C90C030202940960D900041609022
:10452000031645C80086112100416021594644C840
:104530004014459040142D9070B5264888B005462B
:1045400004680094009CE607FAD52348234C0460D5
:10455000234C44EA83432C680194019CE407FAD578
:104560000360930143EA824242F0104444F4C044A1
:104570002B680293029BDE07FAD504602B68039335
:10458000039BDB07FAD5174B03608B0143EA81419C
:1045900041F0104343F4C0432E680496049EF6078E
:1045A000FAD503602B680593059BDE07FAD50460F6
:1045B00041F058412B680693069BDC07FAD5016051
:1045C00042F058422B680793079BDB07FAD502603D
:1045D00008B070BDB0B0025080B00250C0210229B6
:1045E0008071009880611890354B8EB019461A681A
:1045F0000092009AD207FAD5324B334A1A600A6801
:104600000192019AD007FAD5304A1A600A680292DC
:10461000029AD207FAD52E4A1A600A680392039AC0
:10462000D007FAD52B4A1A600A680492049AD20776
:10463000FAD5294A1A600A680592059AD007FAD570
:10464000264A1A600A680692069AD207FAD5244AC0
:104650001A600A680792079AD007FAD5214A1A60A9
:104660000A680892089AD207FAD51F4A1A600A689F
:104670000992099AD007FAD51C4A1A600A680A9268
:104680000A9AD207FAD51A4A1A6008680B900B9852
:10469000C007FAD51A600A680C920C9AD007FAD5AE
:1046A000144A1A600A680D920D9AD207FAD5124A76
:1046B0001A600E210D230F2200200EB0FFF73CBF21
:1046C000B0B0025080B002508043012940633921CC
:1046D000807001298020542100D13490C040349052
:1046E000C0302029C0530D9000413890832308C862
:1046F00080E3102100413821CF4308C82DE9F04163
:10470000012392B0CDE90333624B1D461A6805922E
:10471000059AD207FAD5604C604B2360604B19466E
:104720001A680692069AD707FAD55E4B1A68D6041D
:1047300000F1A8802A680792079AD007FAD55A4A4A
:1047400022600A680892089AD207FAD51E68C6F352
:104750000036002E40F098801220FFF7F9F8074647
:104760001320FFF7F5F887428CBF12201320FFF7C4
:10477000EFF8471EFFF738FF03AB01AA39461220B6
:10478000FFF72CF904AB804602AA39461320FFF745
:1047900025F900EB4800022832D003283ED001283A
:1047A00074D12B680993099BDB07FAD53F4B236033
:1047B0002B680A930A9BD807FAD53D4B23602B68D8
:1047C0000F930F9BD907FAD53A4B23602B681093B0
:1047D000109BDA07FAD5384B23602B681193119B95
:1047E000DB07FAD5354B2360013F25D5102319226D
:1047F00018210020FFF7A0FE304612B0BDE8F0817E
:104800002B680B930B9BD907FAD52D4B23602B6894
:104810000C930C9BDA07FAD52A4BCFE72B680D9344
:104820000D9BDB07FAD5284B23602B680E930E9B5C
:10483000D807FAD5254BC1E703AB01AA39461220A8
:10484000FFF7CCF804AB044602AA39461320FFF761
:10485000C5F810EB440402D1FFF712FCC4E7FFF7E0
:10486000E5FC022C08D0032C09D0012C10D1172113
:104870001620FFF797FDB7E715211420F9E70F2160
:104880000E20F6E7124EB7E7124EB5E7124EB3E729
:10489000124EB1E7B0B0025080B0025000084A5149
:1048A000B4B0025088B0025000084E5100065A4978
:1048B00040065E49000442410014424940042E492A
:1048C000000652494006564900063A4940063E490C
:1048D0000608F1000708F1000408F1000508F100DE
:1048E000014B1860704700BF08BA0250014B1860B6
:1048F000704700BF04BA0250034A13681842FCD044
:10490000024A10601846704700BA025008BA0250B6
:1049100008B9086070476FF015007047084629B164
:1049200001290CBF08466FF015007047032070473F
:104930000020704770472DE9F7430E461746994609
:10494000044628B94FF0FF38404603B0BDE8F08375
:104950000029F7D0002AF5D0CB680D891D44042327
:104960000DEB03022946384600F0AFFC80460028D4
:10497000E8D1BDF80410738946F60812914223D19C
:10498000BDF806109942DDD104230DEB0302294442
:10499000384600F09AFC0028D4D1BDF8042046F631
:1049A00007139A42CED19DF82830A3727389BDF8BF
:1049B0000620A4F808902B44E36004351344C4E9AE
:1049C000006763612561BFE7002BE6D0BAE72DE9F8
:1049D000F7430F4690461E46044620B94FF0FF307D
:1049E00003B0BDE8F0830368002BF7D04368002BC9
:1049F000F4D04FF6FF79D4E904239A4216D2236803
:104A00005B8923B1E368934204BF04332361042329
:104A1000216960680DEB030200F057FC0028DDD12E
:104A2000A37A256923B1E368AB4201D80120D7E717
:104A30002189BDF80620494502F1040303D0BDF8E1
:104A400004C08C450BD116B1BDF80410318004357B
:104A50003D60A8F80020226913442361C0E72B447D
:104A60002361C8E773B50C4606461146022301AA26
:104A7000204600F0D0FA0546E8B9019A1F2A0ED95F
:104A80002368A2F1200119442022304600F0E4FC02
:104A90002368019A13442360284602B070BD014682
:104AA000C2F12002304600F0E2FC019A2168C2F116
:104AB00020003044EAE76FF00205EDE700F0A3BC08
:104AC0004FF440735843303070470B7803F0FD03C8
:104AD000012B14BF4FF0FF304FF44070704710B5FA
:104AE000044600F041FCA3684FF44072303B02FBE7
:104AF000103010BD8168183921F0070101220839F2
:104B000000F089BF13B50446019100F021FF042392
:104B1000A0F108010DEB0302204600F050FF02B0A7
:104B200010BD73B5134601920E460246002105469C
:104B3000FBF70CFF044650B9019B05F12C02012143
:104B40002846FBF703FF10B1002E18BF044620468D
:104B500002B070BD73B5054600200C461646FFF73F
:104B6000DDFE6946C0B2FCF7B1F930BB2C2101FB78
:104B7000045400982189E368CD1804230DEB030247
:104B8000294600F0A2FBC0B9BDF80420648946F6AE
:104B900008139A4216D1BDF806309C420DD1042369
:104BA00000980DEB0302611900F08FFB28B9BDF8E6
:104BB000042046F607139A4207D0009800F084FBC1
:104BC00002B070BD002CF2D0F7E7BDF8061021440A
:104BD00029443160F1E737B5426A04464FF48075E5
:104BE00001A903200195FCF78FF958B9019B226DAB
:104BF000A36201A901200195FCF786F9054628B1B9
:104C0000092500E00125284603B030BD019B206A3C
:104C1000636500F0A9FBE065F5E70123036003F19C
:104C2000012343600023C0E9023370474379012B1D
:104C300007D10368012B04D10079431E5842584123
:104C400070470020704770B586B006460D460320B9
:104C500003A9FCF73BF930BB0398FFF740FFF16D68
:104C60000446284600F033F90444039800F07CFB26
:104C70000190039800F081FB0822014604A800F08F
:104C8000F6FB2A798DF810202146019B039804AA8F
:104C900000F037FB041E039818BF012400F014FB3A
:104CA000204606B070BD0124FAE700F046BB2DE9AE
:104CB000F8430E46002107460846FFF72FFE012164
:104CC00004460020FFF72AFE3378A34220D0834217
:104CD00020D101252C2303FB0575F86DAC6AFFF785
:104CE000EFFE013C804600276B6A03EBC40253F8D9
:104CF0003410D2F804901B684A46C91A30464F4413
:104D0000FFF7D3FFB84504F1FF34EDD8BDE8F883D1
:104D10000025DFE70120F9E737B515460C460120ED
:104D2000694600F08FFEE979012903D00022204670
:104D300000F09CFE9DF80330012B02D1204600F0CC
:104D400074FEA9682046FFF7DDFE2046FDF75AFBFA
:104D5000002003B030BD73B50D46064600F0F7F8ED
:104D60000446E86058B302282ED101A90320FCF7BD
:104D7000ADF858BB01982A46314600F059F8044670
:104D8000D0B9019800F0E4FD012301460DF10302C2
:104D9000019800F09AFA0446A0B9019801220DF199
:104DA000030100F0E9FD10B101238DF803309DF8F7
:104DB000033003F00F03EB71019800F085FA2046F1
:104DC00002B070BD0124F7E70724F8E70124F6E7F5
:104DD00013B5032001A9FCF779F848B90198FFF74A
:104DE00089FE0446019800F06FFA204602B010BD1B
:104DF0000124FAE71FB5032001A9FCF767F8A8B959
:104E0000019802A9FDF71EFB044668B99DF80B3016
:104E1000032B03D1019800F008FE0446019800F02E
:104E200053FA204604B010BD0124F7E70124F8E747
:104E30002DE9F34707460C46014600201646FFF7CA
:104E400044FE051E3FDB3846E46DFFF748FE5FFA7F
:104E500084F905F1FF3809FB08084FF0FF3465B904
:104E6000631C06D0FF2C22DC013440F201133460B5
:104E7000B380284602B0BDE8F08701230DF1070298
:104E80004146384600F021FA002805F1FF3A1CDBC4
:104E900001220DF10701384600F06EFD18B9B4F19A
:104EA000FF3F08BF2C46A8EB09085546D7E7022369
:104EB000A4F580747371631004F0010401330134AC
:104EC00033603471D5E70725D3E70125D1E730B545
:104ED00043790279012B0CBF0123022301FB03F468
:104EE000036803F1FF3302F1FF3204FB03F314BF45
:104EF0000D02002501FB0231481930BD30B5826A30
:104F0000446D944202D0631C93421CD1B2F5807F61
:104F100019D800231946A34209D1934215D2426AF7
:104F200002EBC3035868431A5842584130BD416AE6
:104F3000056D01EBC30105EBC30549686D688D4242
:104F400001D10133E7E70020F0E70120EEE71FB5CC
:104F50000320694600F076FD02A9012000F072FDF1
:104F60009DF80030012B0CD19DF802209DF80830EF
:104F7000032A06D1012B0CBF0020022005B05DF8EA
:104F800004FB0020FAE7036870B5CD1A002D0DDD93
:104F900093F900601C78002E0BDB5C1C04601B780E
:104FA00013600368C91A13688B4232D96FF05F002F
:104FB00070BD04F07F04013C032C27D8DFE804F027
:104FC0000209121E012DF1D05C78146002330360D7
:104FD000E7E7022DEADDB3F8014064BAA4B2146039
:104FE0000333F4E7032DE1DD9C785D78240244EA85
:104FF0000544DD782C4314600433E8E7042DD5DD47
:10500000D3F8014024BA14600533E0E76FF0630081
:10501000CEE70020CCE770B404680E1B002E07DD3D
:1050200026789E4208D10134046070BCFFF7ABBF04
:105030006FF05F0070BC70476FF06100FAE738B541
:1050400003230446FFF7E7FF18B9136813B96FF09D
:10505000670038BD013B136023681A78002AF6D137
:1050600001332360F5E72DE9F74390461F4601AA77
:10507000302305468946FFF7CEFF0446F8B92E686F
:10508000A9EB0609B9F1000F35DD019933784246E5
:105090000E4442F8043B314606232846FFF7BBFF87
:1050A000044660B92A68D8F80410C8F808205318D4
:1050B000B3422B6007D10C213846FEF7C9F82046D1
:1050C00003B0BDE8F083515C3A46013342F8041B5B
:1050D00028462B603146FFF756FF04460028EED1E4
:1050E0002B687A68BB601344B3422B600CBF044644
:1050F0006FF06504E3E76FF05F04E0E7F8B5B1F146
:10510000005F00AF0546144610D2D31D23F00703FD
:105110006E46ADEB030D684600F09EF969462246E7
:105120002846FEF74FFBB546BD46F8BDFEF74AFBE5
:10513000FAE760B1436803F00303012B03D0032BAC
:1051400005D103681BB100238360184670476FF0D8
:10515000150070474368816003F00303032B4FF091
:1051600000020CBF03681346426018467047038B69
:1051700013F0070305D10368002B0CBF00200320A8
:105180007047022B05D1438B002B14BF0020042055
:105190007047012B05D10368002B0CBF00200520B0
:1051A00070470020704773B50D4606461946281D06
:1051B00001920093FFF7CEFF044640B1DDE90032D3
:1051C00029463046A44602B0BDE87040604702B0B0
:1051D00070BD10B44FF02004EFF3118284F31288F5
:1051E000BFF36F8F41615DF8044B0121FBF78ABD6E
:1051F00010B50C4640B139B1081DFFF79AFF28B928
:10520000A36833F0030301D06FF0150010BD38B56B
:105210000C46054658B151B10B6843B14B6833B1E8
:105220001C22002100F023F92C61002038BD6FF012
:105230001500FBE770B504460E46FFF7D9FF051EC3
:1052400031DB4FF02003EFF3118183F31288BFF3BA
:105250006F8F638B208B4FF6FF75AB4200F0070218
:105260002ED0022A0ED1013363831546012381F328
:105270001188BFF36F8FB3B1002331462046FFF78B
:1052800092FF10E0830701D0062A0ED1002333607D
:10529000636893B9C4E90066154662B90A462046B8
:1052A0000221FBF72FFD284670BD052A0CBF6FF0C9
:1052B00085056FF004050023D9E71E606660EBE703
:1052C0006FF00A05F7E77047704773B50C1E054687
:1052D00001921E4611DB8168E3188B420DD8C0682D
:1052E000FDF742FE696821448368019A1C683346D1
:1052F000A44602B0BDE8704060476FF0150002B0F0
:1053000070BD73B50C1E054601921E4611DB816807
:10531000E3188B420DD8C068FDF726FE696821446A
:105320008368019A5C683346A44602B0BDE87040C9
:1053300060476FF0150002B070BD70B50C1E0546D9
:1053400016460EDBA318826893420AD8C068FDF7A0
:105350000BFE69682144836832469B68BDE8704053
:1053600018476FF0150070BD08B5C068FDF7FCFD6B
:105370008368DB689847006808BD08B5C068FDF71A
:10538000F3FD8368DB689847007908BD70B5026853
:105390004C68A24216D38B6823449A4206D2D1E9C4
:1053A0000435AB4204D36FF00B038B6100200AE09D
:1053B000CD68121B05EBC30645F8332042687260C6
:1053C00001330B61012070BDFEE7704700F0F4BBB4
:1053D0000146006800F0F0BB00210120FFF7F6BF96
:1053E00008B5FBF725FEBDE80840FBF7A7BE01386E
:1053F000013910F8013F11F8012F934201D1002B20
:10540000F7D1981A704710B562B103460139841874
:1054100013F8010B11F8012FA34201D09042F7D0ED
:10542000801A10BD1046FCE7431A934210B500EBFA
:10543000020308D3013902469A4207D011F8014FFE
:1054400002F8014BF8E70A448A4200D110BD12F875
:10545000014D03F8014DF7E710B5431E0A44914290
:1054600000D110BD11F8014B03F8014FF7E7C9B2A5
:1054700002440346934200D1704703F8011BF9E749
:105480000369C9B20C2201FB0233186C00F007005B
:1054900070474FF02003EFF3118283F31288BFF3BC
:1054A0006F8F036803F0C00343F00203036082F3CD
:1054B0001188BFF36F8F7047034670B50069C9B29A
:1054C0004FF02004EFF3118684F31288BFF36F8F3F
:1054D0000C2505FB0104246C14F0C00401D0A24289
:1054E00010D105FB010001220264002086F311881F
:1054F000BFF36F8F28B95B6803EBC1014B68984716
:10550000002070BD4FF0FF30F0E78022FFF7D4BFDE
:10551000F8B5069F0469C9B24FF02005EFF3118C6E
:1055200085F31288BFF36F8F0C2606FB0146356C9E
:1055300005F0070EBEF1010F11D1376400258CF381
:105540001188BFF36F8F45B90C2606FB0144C4E9EF
:105550000E23436853F8313098472846F8BD05F0CC
:10556000C005AF4214BF4FF0FF356FF07705E6E797
:1055700013B580240094FFF7CBFF02B010BD6FF08D
:1055800085007047006910B4CBB21C2403FB0400F3
:1055900000215DF8044B1047002000F091BA002074
:1055A00000F0CBBA08B901230B70704737B50D4630
:1055B000416819B3D1E9001384680CB3D4E900241D
:1055C000FCB1F3B19C421FD10133092B1CD80078E8
:1055D0008DF8013001238DF800008DF802308DF830
:1055E0000330684600238DF804308DF80550FDF730
:1055F0007DFB03B0BDE83040FCF744B90B46DBE768
:10560000224601332344E0E76FF0150003B030BDBC
:105610007FB5FF238DF803300DF1030300210193C3
:105620000123CDE9023105238DF80C3003A801AB2D
:1056300004910593FFF7BAFF0028A8BF9DF8030067
:1056400007B05DF804FB1FB50021884214BF042396
:10565000062301A8CDE9011103918DF80430FFF76D
:10566000A5FF002818BF6FF0040005B05DF804FB2B
:1056700038B505460C4600F062FA002D07DBA8425B
:1056800005D9401B84428CBF0020012038BD00207A
:10569000FCE770B50D462846194616461C46FFF72E
:1056A000E7FF38B14CB1224629463046FFF7D4FE19
:1056B000002070BD6FF01500FBE72046F9E72DE9EB
:1056C000F047836886B01B698846914601A902AA03
:1056D00098470024A2462546029BAB4202D806B05A
:1056E000BDE8F087019F07EBC50700267B680493A0
:1056F0003A68B2420AEB060302D801359A46EBE754
:10570000494603A803940593C0470028E7D0049BAB
:1057100001361C44ECE770470020704730B5436801
:105720001360037A03F10053013BDB004568146802
:105730001D44AC4202D96FF0010030BD65798D4245
:1057400002D008341460F1E70020F6E709B9FCF74D
:10575000FBBDFCF729BE70B51546044600EB81067B
:10576000B44201D1002070BD23681A0C222A00F235
:105770008E80DFE802F0121D24432939438C8C8C83
:105780008C484D8C8C8C8C8C8C8C8C8C525E636891
:105790008C8C8C6D73787D82870003F03F03C5F895
:1057A0000C35206800F03F00FCF7FEFD012215E0FB
:1057B00003F03F03C5F81435002200210FE003F089
:1057C0003F03C5F80835ECE703F03F03C5F808359B
:1057D000206800F03F00FCF7B7FD0022012120689F
:1057E000FCF7C2FD0434BBE703F03F03C5F80C35FA
:1057F000206800F03F00FCF7A7FDD7E703F03F0368
:10580000C5F81035D8E703F03F03C5F80835D3E7EE
:1058100003F03F03C5F80C35CEE703F03F03C5F8AE
:1058200060352068C0F3403100F03F00FFF78EFF85
:10583000BCE703F03F03C5F86435F2E703F03F032C
:10584000C5F86835EDE703F03F03C5F86C35E8E7C8
:1058500003F03F03C5F824350122AEE703F03F0310
:10586000C5F82835F8E703F03F03C5F83035F3E70E
:1058700003F03F03C5F83435EEE703F03F03C5F806
:105880003835E9E703F03F03C5F83C35E4E76FF04E
:10589000850068E773B5054601A80C461646FCF777
:1058A00093FD70BB4FF080531969B5FBF1F201FB1A
:1058B000125242BB1969B4FBF1F201FB124212BB56
:1058C0001A695B695343A3421DD3E4B1019B1B01D9
:1058D00003F1804101F5F031C1F80058C1F80448E6
:1058E000C1F80868D1F8002895420FD1D1F80428F2
:1058F00094420BD1D1F80838DBB2B34218BF6FF035
:105900000D0002B070BD6FF01500FAE76FF00D00EA
:10591000F7E70222FFF7BEBFFDF748BC08B5FBF76B
:1059200027FBFFF752FDBDE80840FDF73FBC38B547
:105930000C4615462544FFF720FD2146A94201D11A
:10594000012038BD11F8013B9842F7D00020F8E75C
:105950008068183820F0070010387047042809D0F4
:10596000052803D1481E18BF01207047431A58422A
:10597000584170470120704711B10AB1FFF7D7BFF6
:105980000020704738B50C460123114622460546D3
:10599000FFF79BFC002810DB012221462846FFF779
:1059A000EBFF18B103232370002038BD2378012BAF
:1059B0000CBF012302232370F7E70120F5E72DE94F
:1059C000F7431D4606460F469046FFF7CDFC6C1E7A
:1059D000044443421C40082C1AD83046FFF7CDFC43
:1059E0002A46814641466846FFF736FD621B494616
:1059F0000DEB0500FFF73BFD23466A46394630466E
:105A0000FFF77FFC003818BF012003B0BDE8F0832A
:105A10004FF0FF30F9E707B501238DF8042001AA04
:105A2000FFF7CDFF03B05DF804FB81681839012250
:105A300021F00701FFF7EFBF8268183A22F0070252
:105A4000FFF7A0BF13B50C46C0B201A9FBF73EFAA1
:105A500050B921460198FCF7F5FC04460198FFF780
:105A600033FC204602B010BD0124FAE713B541EA29
:105A7000021204468DF80720FFF76AFF0123014652
:105A80000DF107022046FFF79AFF02B010BD4FF05C
:105A90008053D3F83001A0F10803584258417047B1
:105AA000004700F0A3B808B50020FBF79BFA08B93F
:105AB000FBF774FA4FF080430022C3F8182508BDA5
:105AC00008B510B101282DD008BD4FF08042D2F8A2
:105AD0001814D2F8183413F480330BD1D2F81414FC
