:020000041200E8
:100000003DB8F396000000000002000090490E0089
:1000100000000000000000000000000000000000E0
:10002000FFFFFFFFFFFFFFFFFFFFFFFFFFFFFFFFE0
:10003000FFFFFFFFFFFFFFFFFFFFFFFFFFFFFFFFD0
:10004000FFFFFFFFFFFFFFFFFFFFFFFFFFFFFFFFC0
:10005000FFFFFFFFFFFFFFFFFFFFFFFFFFFFFFFFB0
:10006000FFFFFFFFFFFFFFFFFFFFFFFFFFFFFFFFA0
:10007000FFFFFFFFFFFFFFFFFFFFFFFFFFFFFFFF90
:10008000FFFFFFFFFFFFFFFFFFFFFFFFFFFFFFFF80
:10009000FFFFFFFFFFFFFFFFFFFFFFFFFFFFFFFF70
:1000A000FFFFFFFFFFFFFFFFFFFFFFFFFFFFFFFF60
:1000B000FFFFFFFFFFFFFFFFFFFFFFFFFFFFFFFF50
:1000C000FFFFFFFFFFFFFFFFFFFFFFFFFFFFFFFF40
:1000D000FFFFFFFFFFFFFFFFFFFFFFFFFFFFFFFF30
:1000E000FFFFFFFFFFFFFFFFFFFFFFFFFFFFFFFF20
:1000F000FFFFFFFFFFFFFFFFFFFFFFFFFFFFFFFF10
:10010000FFFFFFFFFFFFFFFFFFFFFFFFFFFFFFFFFF
:10011000FFFFFFFFFFFFFFFFFFFFFFFFFFFFFFFFEF
:10012000FFFFFFFFFFFFFFFFFFFFFFFFFFFFFFFFDF
:10013000FFFFFFFFFFFFFFFFFFFFFFFFFFFFFFFFCF
:10014000FFFFFFFFFFFFFFFFFFFFFFFFFFFFFFFFBF
:10015000FFFFFFFFFFFFFFFFFFFFFFFFFFFFFFFFAF
:10016000FFFFFFFFFFFFFFFFFFFFFFFFFFFFFFFF9F
:10017000FFFFFFFFFFFFFFFFFFFFFFFFFFFFFFFF8F
:10018000FFFFFFFFFFFFFFFFFFFFFFFFFFFFFFFF7F
:10019000FFFFFFFFFFFFFFFFFFFFFFFFFFFFFFFF6F
:1001A000FFFFFFFFFFFFFFFFFFFFFFFFFFFFFFFF5F
:1001B000FFFFFFFFFFFFFFFFFFFFFFFFFFFFFFFF4F
:1001C000FFFFFFFFFFFFFFFFFFFFFFFFFFFFFFFF3F
:1001D000FFFFFFFFFFFFFFFFFFFFFFFFFFFFFFFF2F
:1001E000FFFFFFFFFFFFFFFFFFFFFFFFFFFFFFFF1F
:1001F000FFFFFFFFFFFFFFFFFFFFFFFFFFFFFFFF0F
:1002000080B30220F1DD02005DDE0900C5DD0200E1
:10021000C5DD0200C5DD0200C5DD020000000000F2
:100220000000000000000000000000005DD7020098
:10023000C5DD020000000000C9D60200C5DD0200D5
:10024000E9D80200911C0A00E9D80200E9D80200AE
:10025000E9D802002B1E0A00E9D80200E9D8020002
:10026000591C0A00E9D80200E9D80200771C0A00EC
:10027000E9D80200E9D80200E9D80200E9D8020072
:10028000E9D80200E9D80200E9D80200E9D8020062
:10029000E9D80200E9D80200E9D80200E9D8020052
:1002A000E9D80200E9D80200E9D80200E9D8020042
:1002B000E9D80200E9D80200E9D80200E9D8020032
:1002C000E9D80200E9D80200E9D80200E9D8020022
:1002D000E9D80200E9D80200E9D80200E9D8020012
:1002E000E9D80200E9D80200E9D80200E9D8020002
:1002F000E9D80200E9D80200E9D80200E9D80200F2
:1003000001F0FF01102A2BDB10F0070F08D010F8C6
:10031000013B013A8B422DD010F0070F42B3F6D1CA
:10032000F0B441EA012141EA014122F007047FF0E3
:1003300000070023F0E80256083C85EA010586EA3A
:10034000010685FA47F5A3FA87F586FA47F6A5FA76
:1003500087F68EB9EED1F0BC01F0FF0102F0070282
:1003600032B110F8013B013A83EA010313B1F8D12D
:100370000020704701387047002D06BF354603380E
:10038000073815F0010F07D1013015F4807F02BF47
:10039000013015F4C03F0130F0BC0138704700BF98
:1003A00081F0004102E000BF83F0004330B54FEA26
:1003B00041044FEA430594EA050F08BF90EA020F93
:1003C0001FBF54EA000C55EA020C7FEA645C7FEA26
:1003D000655C00F0E2804FEA5454D4EB5555B8BF49
:1003E0006D420CDD2C4480EA020281EA030382EABA
:1003F000000083EA010180EA020281EA0303362D4C
:1004000088BF30BD11F0004F4FEA01314FF4801C1E
:100410004CEA113102D0404261EB410113F0004F30
:100420004FEA03334CEA133302D0524263EB4303E7
:1004300094EA050F00F0A780A4F10104D5F1200E85
:100440000DDB02FA0EFC22FA05F2801841F10001E0
:1004500003FA0EF2801843FA05F359410EE0A5F1B4
:1004600020050EF1200E012A03FA0EFC28BF4CF0E5
:10047000020C43FA05F3C01851EBE37101F000459B
:1004800007D54FF0000EDCF1000C7EEB00006EEBA8
:100490000101B1F5801F1BD3B1F5001F0CD3490832
:1004A0005FEA30004FEA3C0C04F101044FEA445289
:1004B00012F5800F80F09A80BCF1004F08BF5FEA10
:1004C000500C50F1000041EB045141EA050130BDF0
:1004D0005FEA4C0C404141EB0101013C28BFB1F502
:1004E000801FE9D291F0000F04BF01460020B1FA4D
:1004F00081F308BF2033A3F10B03B3F120020CDA20
:100500000C3208DD02F1140CC2F10C0201FA0CF0FD
:1005100021FA02F10CE002F11402D8BFC2F1200C62
:1005200001FA02F120FA0CFCDCBF41EA0C01904018
:10053000E41AA2BF01EB0451294330BD6FEA040461
:100540001F3C1CDA0C340EDC04F11404C4F120024C
:1005500020FA04F001FA02F340EA030021FA04F35E
:1005600045EA030130BDC4F10C04C4F1200220FAB5
:1005700002F001FA04F340EA0300294630BD21FAF3
:1005800004F0294630BD94F0000F83F4801306BFB9
:1005900081F480110134013D4EE77FEA645C18BFAD
:1005A0007FEA655C29D094EA050F08BF90EA020F44
:1005B00005D054EA000C04BF1946104630BD91EA3C
:1005C000030F1EBF0021002030BD5FEA545C05D13F
:1005D0004000494128BF41F0004130BD14F580047E
:1005E0003CBF01F5801130BD01F0004545F0FE41F2
:1005F00041F470014FF0000030BD7FEA645C1ABF27
:10060000194610467FEA655C1CBF0B46024650EA5D
:10061000013406BF52EA033591EA030F41F4002189
:1006200030BD00BF90F0000F04BF0021704730B50F
:100630004FF4806404F132044FF000054FF00001E4
:1006400050E700BF90F0000F04BF0021704730B5A5
:100650004FF4806404F1320410F0004548BF40427A
:100660004FF000013EE700BF42004FEAE2014FEACF
:1006700031014FEA02701FBF12F07F4393F07F4FAA
:1006800081F06051704732F07F4208BF704793F0AD
:100690007F4F04BF41F40021704730B54FF46074C0
:1006A00001F0004521F000411CE700BF50EA0102C3
:1006B00008BF704730B54FF000050AE050EA01026C
:1006C00008BF704730B511F0004502D5404261EBDC
:1006D00041014FF4806404F132045FEA915C3FF41D
:1006E000D8AE4FF003025FEADC0C18BF03325FEABA
:1006F000DC0C18BF033202EBDC02C2F1200300FA6B
:1007000003FC20FA02F001FA03FE40EA0E0021FA8F
:1007100002F11444BDE600BF4FF0FF3C06E000BF0D
:100720004FF0010C02E000BF4FF0010C4DF804CD7A
:100730004FEA410C7FEA6C5C4FEA430C18BF7FEA3A
:100740006C5C1BD001B050EA410C0CBF52EA430C68
:1007500091EA030F02BF90EA020F0020704710F1E8
:10076000000F91EA030F58BF994208BF90422CBF77
:10077000D8176FEAE37040F0010070474FEA410C70
:100780007FEA6C5C02D150EA013C07D14FEA430C8E
:100790007FEA6C5CD6D152EA033CD3D05DF8040BFF
:1007A000704700BF8446104662468C461946634631
:1007B00000E000BF01B5FFF7B7FF002848BF10F108
:1007C000000F01BD4DF808EDFFF7F4FF0CBF01204D
:1007D00000205DF808FB00BF4DF808EDFFF7EAFFC9
:1007E00034BF012000205DF808FB00BF4DF808ED84
:1007F000FFF7E0FF94BF012000205DF808FB00BF79
:100800004DF808EDFFF7CEFF94BF012000205DF802
:1008100008FB00BF4DF808EDFFF7C4FF34BF01200F
:1008200000205DF808FB00BF7BB972B90029BEBF8C
:1008300000204FF0004106E008BF00281CBF6FF009
:1008400000414FF0FF3000F057B8ADF1080C6DE9F2
:1008500004CE002909DB002B1ADB0DF0E1F8DDF8EE
:1008600004E0DDE9022304B07047404261EB41013E
:10087000002B1BDB0DF0D4F8DDF804E0DDE90223EA
:1008800004B0404261EB4101524263EB43037047C5
:10089000524263EB43030DF0C3F8DDF804E0DDE9F9
:1008A000022304B0404261EB41017047524263EBC6
:1008B00043030DF0B5F8DDF804E0DDE9022304B0F0
:1008C000524263EB4303704753B94AB9002908BF4A
:1008D00000281CBF4FF0FF314FF0FF3000F00CB884
:1008E000ADF1080C6DE904CE0DF09AF8DDF804E0E6
:1008F000DDE9022304B07047704700BFF8B5154624
:100900000A4A1C4656682EB101B02A46B446BDE8D4
:10091000F040604700208DF8000068460DF0E7F9D0
:100920009DF80000281A20700020F8BD0800002063
:1009300030B4054C246814B1A44630BC60471A702A
:1009400030BC00207047000008000020002819D0AB
:1009500003781349134A13B1012B0ED011E0037928
:10096000012B00D06BB943790BB1012B09D18368FE
:10097000643B8B4205D2C0680EE00379012B02D0A4
:100980000BB10020704743790BB1012BF9D1C3683B
:10099000643B8B42F5D280689042F2D801207047C8
:1009A0003D860100FF3F420F10B5054C206810B195
:1009B000804700202060BDE8104002F015B800001C
:1009C000100000202DE9F0410E46050004D000F093
:1009D00045F8074600240AE06FF01500BDE8F081F5
:1009E000204600F041F8807838B1641CE4B2BC4283
:1009F000F6D300BF6FF00B00F0E72746FF2CF9D0CD
:100A0000204600F031F804460DF014FB2771214612
:100A1000074801F0C1FFE070202805D00120A56043
:100A2000A07037700020D9E76FF02200D6E70000F1
:100A3000954D010010B5820702D06FF00D0010BD7A
:100A4000054A1170506028B101EBC1018A000021F4
:100A50000DF07EFD002010BD14000020014800783C
:100A6000704700001400002005490A78904201D325
:100A700000207047496800EBC00001EB8000704720
:100A80001400002070B50546202A27D019481A4CBA
:100A900000EB831C0CEB420004EB8303202922D0E3
:100AA0000CEB410140784C784870204601460CEB35
:100AB0004100914205704078F8D193F82220202A15
:100AC0001ABF0CEB4202547083F8214020220CEB39
:100AD000410C8CF8012083F8221070BD40F28A216D
:100AE000702003F0C3F993F82040407883F8200089
:100AF000DBE70000F0180020701900202DE9FF4FFF
:100B000085B015460C4602F039F9284420F07F40A4
:100B100002902168081A0002C11700EB1160001250
:100B2000002800F3D580AC48089FAC4E00EB87004E
:100B3000039090F820502020E9460DF104088DF82C
:100B4000000006F5407A202D18BF0AEB871B25D040
:100B500005EB450006EBC0002268C168511A090286
:100B6000CA1701EB12610830091217D4618971B1FB
:100B7000418961B900F0A4FD02F000F92168081A6A
:100B80000002C11700EB11600012332806DB0BEBEB
:100B9000450089F800504578202DD9D199F80000FA
:100BA00088F80000A146202D1CBF8D4800EB871B54
:100BB00000F00E8105EB450106EBC10AD9F80420CF
:100BC000DAF808104846891A0902CA1701EB1261BF
:100BD0000AF10807091215D47989002900F0F88074
:100BE0004189002940F0F48000F06AFD02F0C6F867
:100BF0003968081A0002C11700EB1160001233288F
:100C000080F2E68088F800509AF8141099F80C00E9
:100C1000814206D90BEB45004578202DCAD100F062
:100C2000D7B89DF8040000EB400006EBC005688AC9
:100C3000EF68002843D16089E8B3A8680DF098FAFE
:100C4000698A2A7C674B1144491C4218984204D98E
:100C500040F2D651702003F009F96348814204DD67
:100C600040F2D751702003F001F96048814204DA64
:100C70004FF4BB61702003F0F9F85D489042DCBF8F
:100C800002F5F702A2F1F85205DD002ABCBFA2F579
:100C9000F70202F1F852104602F070F820F07F419E
:100CA000781A0002C21700EB126000123328B8BF96
:100CB00001F1330000E002E0B8BF20F07F47029866
:100CC000381A0002C11700EB11600012002803DD82
:100CD00009B00020BDE8F08FD4E90010401A384474
:100CE00027F07F4120F07F40C4E900100398DDF831
:100CF00020806F4690F8205020200DF1040A8DF8D6
:100D00000000202D1CBF364800EB881925D000BFFD
:100D100005EB450006EBC0002268C168511A0902C4
:100D2000CA1701EB12610830091216D4618971B13A
:100D3000418961B900F0C4FC02F020F82168081A6A
:100D40000002C11700EB11600012332805DB09EB2C
:100D500045003D704578202DDAD138788AF80000BA
:100D60002746202D1CBF1E4800EB881B30D005EB0A
:100D7000450106EBC1097968D9F808203846511AAF
:100D80000902CA1701EB126109F10808091212D40D
:100D9000B8F80A10E1B14189D1B900F091FC01F035
:100DA000EDFFD8F80010081A0002C11700EB11601F
:100DB000001233280CDA8AF8005099F81400397BB5
:100DC00088427FF62EAF0BEB45004578202DCED123
:100DD00009B00120BDE8F08F70190020F015002047
:100DE000F0180020FF7F841E0040420F00C0BDF0BD
:100DF0000080841E2DE9F05F04463C480E4600EB5F
:100E000086003B4F90F82050202098469246107064
:100E100007F54079202D18BF09EB861B28D000BFAD
:100E200005EB450007EBC00000F10801C06822682F
:100E3000101A0002C21700EB1260001218D4608969
:100E400078B1488968B9084600F03AFC01F096FF8D
:100E50002168081A0002C11700EB11600012332844
:100E600006DB0BEB45008AF800504578202DD7D1E2
:100E70009AF8000088F80000202D18BF09EB861AA8
:100E800030D005EB450107EBC1096168D9F80820AE
:100E90002046511A0902CA1701EB126109F108062E
:100EA000091210D47189E9B14189D9B900F008FC5F
:100EB00001F064FF3168081A0002C11700EB1160ED
:100EC000001233280EDA88F8005099F81400217BBC
:100ED000884202D80020BDE8F09F0AEB4500457823
:100EE000202DCED10120BDE8F09F00007019002018
:100EF000F01500202DE9F74F96B015468A460026DA
:100F000002F0C4F90446BAF1010F18BFBAF1020F9A
:100F100005D040F663114FF0700002F0A7FFFF49C3
:100F200001200860FE49C96808604FF0000B8DF889
:100F300046B0801E0C90FB4905EB450001EBC00359
:100F40000833CDF828B00FCB0DAF87E80F000DA800
:100F500000F0B6FB0B90F348BDF83E80B0F89C0360
:100F6000ADF84400B8F1000F14BF4FF001094FF085
:100F700000090D981490B9F1000F09D0EA4890F8D3
:100F80002C0028B902F0FAFE002808BF012700D083
:100F90000027E64800210D460078012818BF0328E5
:100FA0003BD1E2484688464537D90B99F343DFF8F1
:100FB00080E3C8180DF10C0C15AA714504D940F254
:100FC000D651702002F052FFDA498B4204DD40F224
:100FD000D751702002F04AFFD7498B4204DA4FF410
:100FE000BB61702002F042FFD4498142DCBF00F5B2
:100FF000F700A0F1F85005DD0028BCBFA0F5F70010
:1010000000F1F850614601F0D5FE039820F07F40D2
:1010100003900D99081A20F07F41002F18BF322548
:1010200004D19DF84400002818BF0225B4F1807F48
:1010300008D00D98001B0002C21700EB12600012CE
:10104000012802DA032216980BE047B1B64890F85F
:101050002D0020B19DF84400051C18BF0225204634
:1010600000220D9B2A445B1A23F07F4CACF1010354
:1010700023F07F452B1A1B024FEAE37E03EB1E632E
:101080001B12934204DB002918BFCDF834C027E0BF
:1010900089B19DF845301BB9A44B1B78032B0AD0AE
:1010A00027B99DF84410002918BF921E00218DF821
:1010B00044B00E4607E037B99DF84430002B1CBF02
:1010C0008DF844B0921E0D9B591A491E21F07F45A0
:1010D000281A0002C11700EB1160001290427CDB5D
:1010E00009975F4601F0C8FF281A0002C11700EBFC
:1010F000116000123D2820DABAF1010F02D00998E0
:1011000040B112E0B4F1807F1CD14FF40E61702029
:1011100002F0ACFEB4F1807F07D0601B0002C11763
:1011200000EB11600012042804DD2C46204601F07B
:10113000A9FF07E000286DDC04E02C46204601F002
:10114000A1FF4F46B4F1807F5FD00D980E9A001B2F
:10115000121B20F07F4022F07F4201285AD3B0F5C5
:10116000000F98BFB2F5000F54D820460DF000F8DC
:101170000B99704B0D1AEB1A5A467BF1000319D3E9
:10118000DFF8B0C1431AB3EB0C0C72F1000C11D3B1
:10119000DFF89CC1AC453EBFC0F5902000F1F45093
:1011A000451807D39C4539D2C1F5902101F1F4517E
:1011B00008444542DFF870B19BF81E0098B35046D2
:1011C0004FF0000A012805D0022002F0B7F90120F3
:1011D00002F0B4F9B04532D200E01BE0A5EB060105
:1011E0004FF001034FF003024FF0020002F0D2F87B
:1011F000002808BF4FF0010AB8F1000F39D00123D1
:10120000A5EB08010322184627E040F6FD117020E7
:1012100002F02CFE19B00020BDE8F08F40F6DD2171
:10122000702002F023FEB04534BF304640461E30E9
:10123000A842C4DB4FF42161702002F017FE10D9E0
:101240000123A5EB08010322184602F0A3F8E0B33E
:101250007EB1A91B01230322022002F09BF8A0B358
:1012600007E056EA080004D040F64711702002F06B
:10127000FDFD012303222946002002F08BF820B354
:101280000126BAF1000F04D014980D9000208DF8BB
:101290004400B9F1000F04BF9BF82D00002800D0D6
:1012A0002FB39BF82C0020B102F03EFC00208BF8FD
:1012B0002C00FFB1A4F1320020F07F410123032272
:1012C000052002F067F840B300E006E09BF82D002F
:1012D000002808BF8BF82D6015E0022002F02EF9DF
:1012E000012002F02BF919B00020BDE8F08F9BF827
:1012F0002C0028B39BF82D0028B1052002F01EF920
:1013000000208BF82D00A5EB0800A0F119010029A1
:1013100023DC40F64221702013E019E0080500406C
:101320001C000020F015002070190020240000206F
:10133000FF7F841E0040420F00C0BDF00080841E6D
:1013400001E002F093FD02F00BFC8BF82C60B0E79B
:1013500040F21231702002F089FD03220123104671
:1013600002F018F8F0B112490020C968086011496C
:1013700008600DF12808104898E8FE10C0F88013A6
:10138000C0F88423C0F88833C0F88C43C0F8905369
:10139000C0F89463C0F89873C0F89CC319B00120DA
:1013A000BDE8F08F40F64A21702002F05FFD00009A
:1013B0001C00002008050040F01500202DE9F04336
:1013C000064683B008789073CF7A5773887A107383
:1013D0000889144650810D460A785F4999464FEABC
:1013E000410C4B42ACF101085AB1C043D5F804801E
:1013F00004F1080288423DDD40F2D751702002F02E
:1014000035FDEE686D686FEA000904F1080206EB2D
:101410000900464504D940F2D651702002F026FD5D
:101420008945E9DC994528DB8445DCBF00F5F700F8
:10143000A0F1F85005DD0028BCBFA0F5F70000F1D1
:10144000F850214601F0B6FC206820F07F41701969
:10145000401C2160002F08BF7A3003D0012F08BF45
:1014600048302DD101F08AFC20F07F40606003B04D
:10147000BDE8F0830146984204DA4FF4BB61702066
:1014800002F0F4FC8445DCBFA1F1F450A0F59020FB
:1014900005DD0028BCBF01F1F45000F59020214685
:1014A00001F088FC2068002F20F07F4108F1010046
:1014B000216008BF7A3008D0012F08BF483004D01F
:1014C00040F27E61702002F0D1FC01F057FC20F068
:1014D0007F416160608901AA694601F06BFC1F4889
:1014E00090F82F10202923D00069401D20F07F4064
:1014F000D4E90021891A2060084420F07F40606010
:101500004B4632462146E868FFF7F8FA00281CBF30
:1015100003B0BDE8F083D4E90010401A304426F04F
:101520007F4120F07F40C4E9001003B0BDE8F083A4
:10153000608906F1090720B102F020FC002808BFED
:101540003237074841780098814284BF081A07441F
:1015500027F07F40CCE700000040420F70190020C8
:101560002400002070B51E4D95F82F00202818BFCC
:1015700070BD95F82E2005EB820090F82040202CBD
:1015800029D0184B03EB821101EB4401497880F814
:101590002010FF2180F8231085F82B1085F82F40AC
:1015A0002146022000F0C6F8002085F82A00A8771E
:1015B0000D4904EB440001EBC000007D002808BF8A
:1015C00002F0CAFF09484168002908BF70BD002029
:1015D000BDE87040084740F25231702002F046FCEE
:1015E00070190020F0180020F01500201C000020C9
:1015F0002DE9F05FDFF8B88098F82E5008EB8500F1
:1016000090F82140202C08BFBDE8F09FDFF8A4B07F
:10161000DFF8A4A0AAF540790AEB8517072617F88A
:10162000140001280ED0042808BF02260AD005287D
:101630000CBF0326062805D040F6AA014FF0700023
:1016400002F014FCBBF1000F18BFAFF30080EFF302
:10165000108072B607EB44014A7808EB850181F8E7
:10166000212091F82220A24204BF202281F82220CA
:10167000B8B12A462146012000F05CF804EB440191
:1016800009EBC10059F8312040683146904798F87D
:101690002E5008EB850090F82140202CBCD1BDE8ED
:1016A000F09F0648002818BFAFF3008062B6E0E75D
:1016B0007019002000000000F01800200000000059
:1016C00010B5044600680CF053FD02466089217A8B
:1016D000144B0844411C50189A4204D940F2D65188
:1016E000702002F0C3FB104A914204DD40F2D75152
:1016F000702002F0BBFB0D4A914204DA4FF4BB614B
:10170000702002F0B3FB0A498142DEBF00F5F7000A
:10171000A0F1F85010BD0028BCBFA0F5F70000F103
:10172000F85010BDFF7F841E0040420F00C0BDF086
:101730000080841EDFF854C010B500230CEB821C1F
:1017400007281ED2DFE800F00505050504040400A3
:1017500001230CF81100002B08BF10BD0C4800EB52
:10176000820292F8220020280EBF82F821100CEB92
:101770004000417020200CEB4103587082F8221089
:1017800010BD4FF41871702002F070FBF0180020AB
:10179000701900202DE9F84F81465648884600EB25
:1017A0008800009090F82040B9F1010F254618BF3D
:1017B000B9F1020F05D040F681214FF0700002F020
:1017C00055FB0027202D44D04A480026807F002862
:1017D00008BF022601F050FCDFF81CA104EB440115
:1017E0000AEBC1018A68C968121A091A22F07F42FD
:1017F00021F07F41964299BFB2F5000FB1F5000F7D
:101800003E4A02EB881B22D922460BEB42014C7860
:10181000202C14D004EB44010AEBC101D1F808C01C
:10182000C968ACEB000C091A2CF07F4C21F07F4109
:1018300066459CBFBCF5000FB1F5000FE4D8202A27
:1018400005D0434620210420FFF71CF90446AC4292
:1018500016D12B48002818BFAFF3008001F00CFC14
:10186000244C034694F8300020280CD0E068991CE2
:10187000081A0002C11700EB11600012002802DDF7
:101880000020BDE8F88F202D0DD02A464946184685
:10189000FFF730FB20B3009880F8237084F83050B5
:1018A0000120BDE8F88F94F82C0018B102F03CF943
:1018B00084F82C7094F82D0020B1052001F03EFE34
:1018C00084F82D70042001F039FE01F0A7FE2020DD
:1018D00084F830000B48C06807600B480760DFE7FA
:1018E00043462A4620210420FFF7CCF80020BDE81B
:1018F000F88F000070190020F0150020F01800206B
:10190000000000001C00002008050040064910B53A
:1019100091F82F20202A1CBF887710BD40F2B131EA
:10192000702002F0A3FA0000701900202DE9F04F9A
:101930005E4E074685B096F82F008846202851D085
:1019400096F82F0006F10C0400EB4000A6F5607934
:1019500009EBC00A20208DF8000096F82E0003AA9B
:1019600006EB800001A990F82050306902903068A1
:10197000384401F01FFADAF80C000199652F084489
:1019800035D34B4B0021DB1B894130D32168411AF1
:1019900021F07F41B1F5000F29D820F07F40606031
:1019A000304684F80C8090F82E00EA46202D1CBFAB
:1019B000404901EB801B3ED005EB450009EBC00818
:1019C0006068D8F808202146101A0002C21700EB00
:1019D000126008F1080600121BD4708958B34889B8
:1019E00048B128E040F64C31702002F03FFA05B0D3
:1019F0000120BDE8F08F2046FFF762FE01F0BEF93E
:101A00003168081A0002C11700EB11600012332878
:101A100011DA8AF8005098F81410207B814205D81A
:101A20000298606005B00220BDE8F08F0BEB450026
:101A30004578202DC0D1052001F080FD1B4C4FF0D2
:101A4000FF30A06094F82E309DF800202021202A3D
:101A500013BF052004EB830090F82000FFF712F875
:101A600094F82E20134901EB821194F82F2001EBFA
:101A700042014870206838442060FF2084F82B0021
:101A8000607E012805D12069401E20F07F4001F0D2
:101A90009BFB9DF80000202803D00748407802F007
:101AA000B5FA05B00020BDE8F08F000070190020E5
:101AB0000040420FF01800201C00002070B5234A9F
:101AC00092F82F10202939D092F82F10A2F56073C8
:101AD00001EB410103EBC10C92F82E1092F82E405D
:101AE00002EB810191F82010A2F1800505EB84142E
:101AF000202928D001EB410503EBC5052D7D85424A
:101B000084BF04EB41014978F2D801EB410103EBBA
:101B1000C101DCF80C0089681468081A0002C117BA
:101B200000EB1160001207D40CF022FB04F16501F8
:101B3000884224BF001B70BD002070BD40F61E31DE
:101B4000702002F093F94FF0FF3070BD7019002043
:101B5000064810B590F82F1020291CBF007E10BD3C
:101B600040F64531702002F081F900007019002024
:101B70000246144B10B508449A4204D940F2D6519B
:101B8000702002F073F9104A914204DD40F2D751FF
:101B9000702002F06BF90D4A914204DA4FF4BB61F8
:101BA000702002F063F90A498142DEBF00F5F700B8
:101BB000A0F1F85010BD0028BCBFA0F5F70000F15F
:101BC000F85010BDFF7F841E0040420F00C0BDF0E2
:101BD0000080841E154B0A1A4FF0000CD31A7CF1BA
:101BE00000033CBF1046704710B5431A0F4C1C1B36
:101BF0007CF1000C3CBF104610BDDFF834C09445AA
:101C00003FBFC0F5902000F1F450084410BD9C4542
:101C100006D2C1F5902101F1F4510844404210BDB3
:101C200040F6DD21702002F021F900000040420F53
:101C3000FF7F841E074991F83020824204BF486824
:101C4000704700EB4000044901EBC0000830FFF78B
:101C500037BD000070190020F01500200E4910B5A6
:101C600091F82F00202812D091F82F00A1F5607272
:101C700000EB400002EBC00091F82F10406801EB30
:101C8000410152F83120BDE810400421104740F6D0
:101C90008D01702002F0EAF870190020F8B56C4D43
:101CA0006C4A05F56074012694F82C1008286ED251
:101CB000DFE800F0047399ABC943B0B519B901F07E
:101CC0004FFF84F82C60E08A10B102F057F890B111
:101CD000FFF748FCFF2084F82900A168B1F1FF3F1D
:101CE00005D001230322052001F054FB40B1607EA2
:101CF000012810D109E040F63D01702002F0B6F84D
:101D000040F64201702002F0B1F82069401E20F038
:101D10007F4001F059FA94F82F0094F82F1000EB4F
:101D2000400005EBC000406801EB410155F831204F
:101D300001B00121BDE8F040104794F82D0040B1FA
:101D400019B901F00DFF84F82C60002084F82D00F3
:101D5000F8BDFFF707FC4FF0FF30A06094F82900B2
:101D60008DF800009DF8000090B194F82F0094F8D1
:101D70002F1000EB400005EBC000406801EB410173
:101D800055F8312001B00621BDE8F04010475AE077
:101D900040F65A01702002F069F8FFF7E3FB84F87F
:101DA000286001F0EBFF18B194F82C0028B108E08E
:101DB00040F66801702002F059F801F0D1FE84F875
:101DC0002C6094F82F0094F82F1000EB400005EBE6
:101DD000C000406801EB410155F8312001B00021FD
:101DE000BDE8F040104701F063FCE08A10B101F05B
:101DF000C5FF28B118480078032808BF6677F8BDEA
:101E000040F67201702002F031F814480660D06884
:101E10000660F8BD1078BDE8F84002F0F7B8FFF7AB
:101E2000A1FB94F82F0094F82F1000EB400005EB75
:101E3000C000406801EB410155F8312001B0052197
:101E4000BDE8F040104740F68501702002F00EF822
:101E5000F01500201C000020240000200805004090
:101E6000034810B540780CF083F980B210BD000033
:101E7000240000202DE9F34F8246E0488BB0006833
:101E8000DF4DC005C00D0ED0103840B20028B8BFDD
:101E900000F00F0000F1E020ACBF90F8000490F8D3
:101EA000140D40090DD00C984FF0000B007800285D
:101EB00018BF012818D040F21C714FF0700001F0DB
:101EC000D5FF95F82F004FF0010B202807D00C9874
:101ED000007848B14FF4E361702001F0C7FF40F291
:101EE0001571702001F0C2FFC64C24B1002140F2F0
:101EF0001F70AFF30080C4490AEB4A0001EBC00039
:101F00004FF00108009024B1002140F22770AFF398
:101F10000080B8F1000F09D095F82E604FF000094D
:101F200085F82B90BBF1000F07D032E0B7480028AE
:101F300018BFAFF3008062B6EEE73746012020EA13
:101F40000706B348402200EB871100EB86100CF027
:101F500085FA24B1002140F29A50AFF3008005EBDE
:101F6000870105EB8600096A016224B1002140F275
:101F70009E50AFF3008024B1002140F23170AFF3E6
:101F8000008095F82B008DF804009DF804000028CF
:101F9000B9D124B1002140F23B70AFF3008001F0D1
:101FA0006BF88046334606AA0C99FFF707FA24B16E
:101FB000002140F24270AFF30080954906A801EB82
:101FC000861717F81A10012918BF022936D1069969
:101FD000079AA1EB080121F07F41A2EB080222F051
:101FE0007F42022970D3B1F5000F98BFB2F5000F00
:101FF0006AD84FF0010901AB05AA3146FEF7FAFE97
:10200000002869D09DF814109DF8042033468A42B8
:1020100066D00520FEF736FD07EB4A0148709DF8B3
:10202000140020281CBF07EB400080F801A061D0FD
:10203000324651465FF00300FFF77CFB05EB86005C
:1020400090F823008DF804009DF80400002814BFC8
:102050000127002724B1002140F24970AFF300802E
:102060006C48002818BFAFF30080EFF3108872B6F9
:1020700024B1002140F24F70AFF3008095F82B009F
:102080008DF804009DF8040000287FF43CAF24B1D3
:10209000002140F25770AFF300800DF1180E009848
:1020A0009EE80E1000F10800B9F1000F80E80E1054
:1020B0004CD024B1002140F26470AFF30080BBF13A
:1020C000000F34D11EE0FFE7324651460420FFF7EF
:1020D00031FB4FF00109B1E7324651460420ABE72E
:1020E000202919BF07EB4100407805EB860090F8E6
:1020F000200091E705EB860080F820A0FF2180F802
:10210000231095E79FB195F82F0020280FD124B117
:10211000002140F26970AFF3008031460220FFF7E2
:1021200039FB20B90C980078F0B301284CD024B1C9
:10213000002140F28670AFF30080BBF1000F1CBF9E
:10214000FF2085F82B0048D04FF0010924B1002171
:1021500040F29770AFF30080B8F1000F47D024B180
:10216000002140F29B70AFF30080B9F1000F11D055
:1021700095F82E0005EB800090F82100202809D06A
:1021800024B1002140F2A270AFF3008022484078D1
:1021900001F03CFF24B1002140F2A770AFF30080B2
:1021A0000DB04846BDE8F08FFFE724B1002140F2B2
:1021B0007170AFF3008095F82E2051460420FFF790
:1021C000B9FA4FF00109C1E7002C3FF49CAE0021A1
:1021D00040F27C70AFF3008095E695F82E10012058
:1021E000884385F82E00FF2085F82B00ACE70748D0
:1021F000002818BFAFF3008062B6B0E704ED00E03E
:102200007019002000000000F01500200000000000
:10221000F0180020000000001C0000202DE9F14F04
:10222000A44886B00068C005C00D11D0103840B277
:102230000028B8BF00F00F0000F1E020ACBF90F81C
:10224000000490F8140D400908BF4FF0010901D0B7
:102250004FF000090698007800281EBF002007B044
:10226000BDE8F08F4FF0000B934D944CDA4625B14A
:10227000002140F22560AFF3008094F82E6084F8CE
:102280002BA04FF0000825B1002140F22A60AFF3E7
:102290000080B9F1000F1DD13746012020EA070662
:1022A0008748402200EB871100EB86100CF0D6F82F
:1022B00025B1002140F29A50AFF3008004EB870172
:1022C00004EB8600096A016225B1002140F29E50AC
:1022D000AFF3008025B1002140F23260AFF30080FF
:1022E00000F0CAFE074633466A460699FFF766F8CD
:1022F00025B100214FF4C760AFF3008094F82F00A0
:10230000202814D020690099091A0902CA1701EB84
:10231000126109120BD5DDE90012511A20F07F423B
:10232000084420F07F40CDE900204FF001084DB176
:10233000002140F24260AFF3008000214FF4C960F9
:10234000AFF3008000980199C01BC91B20F07F40AB
:1023500021F07F41B0F5000F98BFB1F5000F03D811
:10236000B9F1000F0CD103E0B9F1000F38D094E0BF
:1023700033463A4669465348FEF7C0FB48EA000830
:10238000B8F1000F22D000980BF0F2FEBDF80A1051
:102390009DF808204C4B1144491C4218984241D8E2
:1023A000484881425ADC404281425FDB581C9042DF
:1023B000DCBF02F5F702A2F1F85205DD002ABCBF2E
:1023C000A2F5F70202F1F8520698C2604FF0010B35
:1023D000002D62D0002140F25B60AFF300805CE032
:1023E000BDF80A0005AA04A900F0E4FC94F82F0047
:1023F00020281CD02069401D20F07F40DDE900210D
:10240000891A014421F07F41CDE900010BF0B0FEB3
:10241000BDF80A109DF808202B4B11444A1C811866
:10242000984218D940F2D651702001F01FFDBDF836
:102430000A0007F1090620B101F0A0FC002808BF3E
:102440003236224804994078884284BF401A0644B4
:1024500026F07F40D2E71B48824204DD40F2D7518C
:10246000702001F003FD1A48824204DA4FF4BB6188
:10247000702001F0FBFC17488842DCBF01F5F70132
:10248000A1F1F85105DD0029BCBFA1F5F70101F16B
:10249000F85106984FF0010BC16094F82B008DF8AD
:1024A00010009DF8100000287FF4E1AE07B05846F8
:1024B000BDE8F08F04ED00E000000000701900207E
:1024C000F01800200040420FFF7F841E24000020EF
:1024D00000C0BDF00080841E2DE9F14F8A4D8CB004
:1024E00095F82E000020894C01278146A5F180082F
:1024F000089024B1002140F2B670AFF30080002FA5
:1025000039D000BF85F82B9024B1002140F2BB7078
:10251000AFF3008095F82EA0012020EA0A0608EB10
:10252000861008EB8A11834640220BF097FF24B1F6
:10253000002140F29A50AFF3008005EB860005EBD6
:102540008A010090096A016224B1002140F29E5084
:10255000AFF3008095F82B008DF808009DF8080077
:1025600080B1002C1CBF002140F2C170C1D000BF5F
:10257000AFF30080BDE76648002818BFAFF30080C6
:1025800062B6BFE724B1002140F2C570AFF300800E
:102590000C981BF81000032878D1DDF800A0CDF8C6
:1025A00014A00C999AF82000884214BF4FF0000B39
:1025B0004FF0010B0AF1200C8646202208EB86130F
:1025C00003E0024603EB42004078884202D0202814
:1025D0000AD0F6E7202807D0864507D103EB4E0046
:1025E00040788CF8000007E048460CE003EB400020
:1025F00003EB42014078487024B1002140F20450BE
:10260000AFF30080012010EA0B0F1CBFFF218AF8F6
:102610002310002858D024B1002140F2CA70AFF333
:102620000080324601200C99FFF784F8059890F855
:1026300023008DF808009DF80800002814BF4FF013
:10264000010A4FF0000A24B1002140F2D570AFF327
:1026500000803048002818BFAFF30080EFF31087E8
:1026600072B624B1002140F2DA70AFF3008095F821
:102670002B008DF808009DF8080040B1002C1CBF0D
:10268000002140F2DE703FF434AF71E71CE0BAF194
:10269000000F08D095F82F00202804D131460220E1
:1026A000FFF778F808B324B1002140F2F270AFF3DD
:1026B000008095F82E100120884385F82E00FF2019
:1026C00085F82B000120089024B1002140F2FB7016
:1026D000AFF300808FB124B1002140F2FF70AFF35F
:1026E000008008980DB0BDE8F08F002CF2D00021DA
:1026F00040F2ED70AFF30080E7E70548002818BF0F
:10270000AFF3008062B6E6E7701900200000000019
:102710000000000000000000202824BF00207047B7
:1027200000EB4000034B43F8301003EBC000426065
:1027300001207047F015002010B5202811D20E4955
:1027400091F82E30A1F1800202EB831C1CF81030AE
:102750003BB191F82E3002EB831212F81020012ABF
:1027600001D0002010BD91F82E2001460020FEF778
:10277000E1FF012010BD0000701900202DE9F84F85
:10278000814E804696F82E00A6F1800707EB801058
:1027900010F81800002868D096F82E907B4D25B1CF
:1027A000002140F69230AFF3008007EB891414F853
:1027B0001800012818D0C0B204281CBF052806281C
:1027C00058D02DB14FF0000140F69E30AFF300809D
:1027D00001F072FC25B1002140F6A230AFF3008079
:1027E00014F818000128E6D1012425B1002140F693
:1027F000A930AFF30080002C42D0002086F82B00D7
:1028000025B1002140F6AE30AFF3008096F82EB02F
:10281000012020EA0B0907EB8B1107EB89104022FE
:102820000BF01CFE25B1002140F29A50AFF300805E
:1028300006EB8B0006EB890A006ACAF8200025B176
:10284000002140F29E50AFF3008096F82B008DF8E7
:1028500000009DF80000D0B1002D1CBF002140F603
:10286000B430C2D0AFF30080BFE740F689317020AA
:1028700001F0FCFA4A4641460120FEF75BFFA9E75A
:102880004348002818BFAFF3008062B6B5E725B112
:10289000002140F6B830AFF300809AF821300AF1F9
:1028A000210140461C464FF0200B07EB89120AF12C
:1028B000220A04E0A34602EB4B0C9CF80140844240
:1028C00002D0202C2BD0F5E7202C28D0A34204D115
:1028D00002EB43004078087005E002EB440002EB95
:1028E0004B0140784870BAF1000F11D025B100219A
:1028F00040F2FC40AFF300809AF80000A04207D1FC
:1029000025B1002140F2FF40AFF300808AF800B00B
:102910005DB1002140F20450AFF3008000E025B12A
:10292000002140F6BC30AFF300801A48002818BFE1
:10293000AFF30080EFF3108472B696F82B008DF899
:1029400000009DF8000038B1002D1CBF002140F6AA
:10295000C2303FF44AAF85E786F82E90FF2086F814
:102960002B0054B1002D08BFBDE8F88F002140F6C0
:10297000CF30AFF30080BDE8F88F0548002818BFBE
:10298000AFF3008062B6EDE7701900200000000090
:10299000000000000000000070B50D46064601F082
:1029A000DBF90F4890F82E200024803800EB8210CD
:1029B00010F8141029B1611CCCB2202CF8D32020BF
:1029C00070BD084804EB440140F8316000EBC100E1
:1029D000214645600120FEF7ADFE204670BD000097
:1029E00070190020F01500202DE9F04782B000F0AA
:1029F00043FB054600F012FE664CA068B0F1FF3FB5
:102A00001CBF4FF0FF30A060A07F634F90B9D4E9A6
:102A10000310401A20F07F404FF40C710BF0DDFBE7
:102A200021690844281A0002C11700EB1160001246
:102A3000C00F13D0607E28B394F829008DF80000F1
:102A40009DF80000F0B100F027FC00BF94F82A00C8
:102A5000F0B140F21141702001F008FA94F82F0013
:102A600094F82F1000EB400007EBC000406801EB2A
:102A7000410157F831200821904740F2F931702088
:102A800001F0F4F9E81C20F07F4000F0FBFADDE7EC
:102A9000012084F82A0094F82F00202824D094F8EC
:102AA0002F80202084F82F0084F83000002684F83E
:102AB000286084F82960394826600078022816BF0B
:102AC000032801200020207794F82E9004EB890A37
:102AD0009AF8200020282FD000EB400007EBC00020
:102AE000817D012905D027E040F21441702001F0DA
:102AF000BDF92F4600F10805408A01AA694600F099
:102B000059F994F82F00202804D02069401D20F0A6
:102B10007F4009E06889093720B101F02FF90028CA
:102B200008BF323727F07F40D5E90021891A286095
:102B3000084420F07F40686049460120FEF72AFEE5
:102B40000028F9D0164800EB891010F81800022868
:102B500004D14A4641460620FEF7ECFDFF2084F8EA
:102B60002B009AF821000F4D20281CBF687801F037
:102B70004DFA207F18B100F09BFD267766776968D3
:102B8000002904BF02B0BDE8F087642002B0BDE8B0
:102B9000F047084770190020F0150020240000209D
:102BA000F01800201C00002010B5324C82B094F8C0
:102BB0002F10202908D0A168B1F1FF3F09D040F6BD
:102BC000BA21702001F052F940F6B921702001F0CD
:102BD0004DF962680146284B50189A4204D940F2D8
:102BE000D651702001F042F9244A914204DD40F2AE
:102BF000D751702001F03AF9214A914204DA4FF49A
:102C0000BB61702001F032F91E498142DCBF00F542
:102C1000F700A0F1F85005DD0028BCBFA0F5F700D3
:102C200000F1F85001AA694600F0C4F89DF80400CC
:102C30000F288CBF012000200099084420F07F411C
:102C4000A16094F829008DF800009DF8000000288C
:102C500004BF02B010BD01230322052000F09AFB3F
:102C600000281CBF02B010BD40F6C221702001F048
:102C7000FDF8000070190020FF7F841E0040420F05
:102C800000C0BDF00080841E70B51E4C202184F869
:102C9000201084F8211084F82210002084F82300EA
:102CA00084F82E0084F82F10421EA2602060A077C6
:102CB00084F8280084F829002077607784F83010A1
:102CC000114984F82C0084F82D0008704870488061
:102CD000A4F182011022887001F8040F521EFAD16B
:102CE0000A4D012684F82A60FF202870084801F068
:102CF0006FF9687001F0CAF9E86000F021FD84F80E
:102D0000316070BD70190020240000201C000020DC
:102D1000F185000070B50446154608460BF028FA08
:102D2000144B011B0022CB1A72F1000318D3DFF8F9
:102D300044C0231AB3EB0C0C72F1000210D30E4AFC
:102D40008A423EBFC4F5902101F1F451014407D3FA
:102D50009A4209D2C0F5902000F1F450204441423B
:102D600001F10F00281A70BD40F6DD21702001F03E
:102D70007DF800000040420FFF7F841E410B48F2A7
:102D8000376251430A0C094B510202FB0302084807
:102D9000504300F586306E30400D5B4210FB03F36C
:102DA000B2EB532F88BF491C08447047F7C2FFFF9E
:102DB0006F0C0100430B48F2376C03FB0CF330B48B
:102DC0001B0CDFF844C05C0203FB0C030F485843A4
:102DD0004FEA505C04EB0C0043F609541CFB04F46E
:102DE00004F5807C43F60855A3EB5C2C2C440CF0D6
:102DF000FF0CB3EB542F84BF4FF0000C401C086055
:102E000082F800C030BC7047F7C2FFFF6F0C0100B2
:102E10002DE9F041384CD4F80403DFF8E08010F4D9
:102E2000803F4FF400664FF0E0274FF0000519D0C7
:102E300033480068B0B1C4F84051C7F88062D4F894
:102E40004005D8F80010401A20F07F40022802D335
:102E5000B0F5000F06D94FF48030C4F80803042001
:102E6000FEF71CFFD4F8040310F4003F1AD02548E5
:102E70000068B8B1C4F84451C7F880622248D0F85D
:102E80004005D8F80010401A20F07F40022802D3F5
:102E9000B0F5000F06D94FF40030C4F80803052040
:102EA000FEF7FCFED4F8040310F4802F08BFBDE841
:102EB000F08116480068002808BFBDE8F081C4F81A
:102EC0004851C7F880621248D0F84005D8F8001081
:102ED000401A20F07F40022804D3B0F5000F98BFBD
:102EE000BDE8F0814FF48020C4F80803BDE8F0414C
:102EF0000620FEF7D3BE000000B0004004B500403D
:102F000040B1004044B1004004B0004048B100402E
:102F100008B000402DE9F041384D2878042868D0E9
:102F2000E81C0122017859B1012908BF6A7002D05A
:102F30006978002958D002210170407800F0FEFA2B
:102F40002F4CD4F804034FF0000810F4002F4FF476
:102F500080774FF0E0260AD02A48006838B1032075
:102F600000F0ECFAC6F880720320FEF797FED4F862
:102F7000040310F4802F0AD02348006838B10220DF
:102F800000F0DCFAC6F880720220FEF787FED4F863
:102F9000040310F4003F0AD01C48006838B1012037
:102FA00000F0CCFAC6F880720120FEF777FED4F864
:102FB000040310F4803F08BFBDE8F08114480068A6
:102FC000002808BFBDE8F081002000F0B7FAC6F87D
:102FD000807204202870C5F80880C4F80082BDE81B
:102FE000F0410020FEF75ABE40F22B416C2000F069
:102FF0003DFFBDE8F0410720FEF750BE2C00002049
:10300000008000404C8100404881004044810040E5
:1030100040810040012211024FF0E0230020C3F85C
:10302000801103F5C073BFF34F8FBFF36F8FC3F8E9
:1030300000110E4941F8042F431EC1F80433C1F8B2
:103040003C05C1F83C010A4BC3F84005C1F84001FA
:103050001B1DC3F84005C1F844011B1DC3F8400502
:10306000C1F84801CA6003494870704700800040B9
:10307000048000402C0000200148006870470000D8
:1030800004B500402DE9F047484E0546F71E337859
:10309000F968012B04BFA942BDE8F0874FF040401A
:1030A000434A1060434A6FF48020C2F8080302F1DB
:1030B00004004FF00004002B63D06FF4A02CC2F882
:1030C00048C3C0F84045C2F844413B4800684FF04F
:1030D000E0294FF00108002804BF4FF40060C9F850
:1030E00080024FF48030C2F80803C2F84803C2F8E7
:1030F00040413248D0F800C0A5EB0C0C2CF07F4CBE
:10310000BCF1020F4AD3BCF5000F47D8C2F84055B6
:103110004FF4803CC2F844C32BB102688A1A22F0F3
:103120007F42022AF9D3C7F808803C70FFF772FF8C
:103130002348D0F8041564F30101C0F80415D0F851
:103140000825022161F30102C0F80825D0F81025F6
:10315000042161F30302C0F81025C0F80C80B9689F
:10316000C0F800128015C9F88002C9F8000115499D
:10317000C00508600420FD60707086F80080BDE81E
:10318000F0876FF4802CC2F848C3C2F84045C2F8FB
:103190004041C0F84045C2F8444196E70020C2F8DB
:1031A000400540F269216C2000F060FE2F000020F5
:1031B00008F5014000B0004048B1004004B50040AF
:1031C0000080004004F5014070B52A4CE16881425E
:1031D00014BF01220022DFF8A0C09CF80050022D8D
:1031E00002D0002A34D002E0002A08BF70BD627805
:1031F0009AB3224B4FF080421A60214B9213C3F8CE
:103200000823C3F848230022C3F840211D4A16684A
:10321000861B26F07F46022E24D3B6F5000F21D858
:10322000C3F840054FF48036C3F844632DB11368EA
:10323000CB1A23F07F43022BF9D3134B02214A0709
:103240001A60E06004208CF801008CF8001070BD5A
:1032500040F277216C2000F009FE40F27B216C20C7
:1032600000F004FE0020C3F8400540F287216C20E6
:1032700000F0FCFD2C0000202F00002008F501408C
:1032800000B0004004B5004004F501400148C068AA
:10329000704700002C0000202DE9F04136486FF403
:1032A0008021C0F80813354A00F1040C002113787E
:1032B0006BB16FF4A024C0F84843CCF84015C0F8B7
:1032C00044112F4800684FF0010C98B90CE06FF4DE
:1032D0008024C0F84843C0F84015C0F84011CCF82D
:1032E0004015C0F84411ECE74FF0E0244FF40060C3
:1032F000C4F88002022B04D040F293216C2000F02D
:10330000B5FD204E3068204CC01C20F07F40E368A3
:103310001E4D98420BD03768DF1B27F07F47042FE4
:1033200005D3B7F5000F02D8FFF7ACFE1EE03068FA
:10333000181A20F07F40022815D3B0F5000F12D8DC
:10334000134B4FF080401860C4F808C02170C5F8D6
:1033500004C0C5F80CC04000191F0860042050705C
:1033600082F800C002E0C4F808C02170A068C5F867
:103370000002BDE8F081000000B000402F000020F6
:1033800048B1004004B500402C00002000800040FF
:1033900008F501402DE9F047634C0027012694F819
:1033A00000C065784FF4A07407287BD2DFE800F0F6
:1033B000040404046A6A6A00DFF87081D8F80C908B
:1033C000B9F1807F04BF98F80180B8F1000F03D0F5
:1033D000BCF1020F05D02CE040F2D6216C2000F0A9
:1033E00045FDA5F1040808F0FF0804EB880404F18A
:1033F000804808F530480024BCF1010F03D0BCF12F
:10340000020F0AD012E0042D24BFD8F80090B9F1C1
:10341000000F08BF4FF0004408E0042D24BFD8F887
:103420000090B9F1000F08BF44F0804414F0804FC1
:10343000E1D13F4C00F1100C06FA0CFCC4F808C3B3
:1034400004EB8005AAB14FF0400808EB800808F0B3
:10345000FF08A044C8F8006004EB8000D0F84005E5
:10346000A1EB000020F07F40904238BFC5F84075C6
:1034700051D3C5F84015012B08BFC4F804C301207F
:10348000BDE8F087BCF1000F06D0854204D140F2C0
:10349000F9216C2000F0EAFCA0F1040C0CF0FF0C08
:1034A000012B00E03AE00CBF01250025BCF1030F21
:1034B00004D340F2BD116C2000F0D8FC0CF11003D5
:1034C00006FA03F31B4EC6F80833C6F8483304EB7C
:1034D0008C0C46F80C70001FC0B206EB80007AB16D
:1034E000DFF854C0DCF800C0A1EB0C0C2CF07F4CD2
:1034F000624592BFBCF5000F0021C0F840150AD804
:10350000C0F84015002D18BFC6F80433C6F8443380
:103510000120BDE8F0870020BDE8F08740F2FE21E1
:103520006C2000F0A3FC00002F0000202C000020E5
:103530000080004000B0004004B500402DE9F84391
:10354000012600274FF4A078072851D2DFE800F0C9
:10355000040404041919190000F1100106FA01F21B
:103560002649C1F8082301EB80030022C3F8402557
:1035700008EB80028F50224951F820000090BDE8EE
:10358000F883204D011FCCB2297879B16A78824244
:103590000CD11D4A4FF040401060012908BFFFF7D1
:1035A00039FD2F7019494FF08070C860184904F137
:1035B000100006FA00F0C1F80803C1F84803A000A3
:1035C0000844D0F84005134A1268801A20F07F4062
:1035D000022807D301EB84020020C2F8400508EB63
:1035E00084000F500C4850F824000090BDE8F88388
:1035F00040F27F316C2000F039FC00000080004078
:10360000408100402F00002008F501402C000020E0
:1036100000B0004004B5004040B1004020496FF4C4
:103620008020C1F808031F480A1D037800205BB101
:103630006FF4A023C1F84833C2F84005C1F8440133
:103640001949096899B90CE06FF48023C1F848332F
:10365000C1F84005C1F84001C2F84005C1F8440175
:10366000EEE74FF0E0224FF40061C2F880120F49FC
:103670004FF0FF32C1F80823C1F84005C1F84001FE
:103680000A1DC2F84005C1F84401121DC2F84005E8
:10369000C1F84801121DC2F84005C1F84C0170473D
:1036A00000B000402F00002048B1004000800040E2
:1036B000084890F902000028B8BF704700F01F01C9
:1036C000012202FA01F14009800000F1E020C0F877
:1036D000001270472C00002010B507280DD2DFE83B
:1036E00000F00404040406060600064902E0001F78
:1036F0000549C0B201EB800010BD40F222316C20C0
:1037000000F0B4FB4081004040B1004010B50728F4
:103710000DD2DFE800F004040404060606000649A2
:1037200002E0001F0549C0B201EB800010BD40F26D
:1037300022316C2000F09AFB4081004040B10040F3
:1037400070B51A48002404210470C01E0170890558
:10375000C160FFF75FFC01234FF0E02CDD02CCF8E5
:103760008051BFF34F8FBFF36F8FCCF88052104A58
:10377000536093600F4801680029FCD1481EC2F8CD
:103780000803C2F84803C2F84045C2F840410A485D
:10379000C0F84045C2F84441001DC0F84045C2F899
:1037A0004841CCF80051136070BD00002F0000208C
:1037B00000B0004004B5004004B000402DE9F041E5
:1037C000164C607A002827D04FF480718D0528466A
:1037D0000AF027FD80464FF4827128460AF021FD49
:1037E00000260746B8F1000F09D00120C5F80803EC
:1037F000207920B12671E06908B18047E66137B1D0
:10380000C5F804610220C5F8080300F063FA4046D9
:10381000BDE8F04100F058B8BDE8F0813C00002060
:1038200010B50AF0A8FD30B90AF0C6FD18B90AF0C3
:10383000F9FD002802D002490220086010BD0000F6
:10384000340C004070B500F08BF900F097FA094C89
:103850004FF0804530B1FFF7E3FF012028610420DD
:10386000A07204E00320A0720120C5F80403002028
:10387000E07170BD3C00002070B5124CA079E0B141
:10388000E179401E814218DA00F078FA054600F02E
:103890005DFBA179012902D9E179491CE1710DB1E2
:1038A000616900E02169411A022902DA11F1020F6F
:1038B00007DC0DB1606100E02061BDE87040FFF7FA
:1038C000C1BF70BD3C0000202DE9F04706464FF017
:1038D00080454FF4867128460AF0A3FC80464FF4D9
:1038E000887128460AF09DFC274C8246277804F10F
:1038F00008000AF00AFD10B14FF4D57116E04FF040
:10390000010946B1A07A032805D10420A072FFF76F
:1039100087FFC5F810900026B8F1000F18D0C5F841
:103920000C61A07A042804D04FF4DE716D2000F001
:103930009DFA0AF020FD28B90AF03EFD10B90AF000
:1039400071FD08B1114806600220A07200F0ECF889
:10395000BAF1000F08D0C5F81061A07A022801D191
:10396000FFF78AFFC5F814903FB12670A07A0228AD
:1039700001D1FFF767FF00F0D7F8BDE8F047024834
:1039800008300AF0D9BC00003C000020340C004094
:103990002DE9F0475F4C00270646A7614278817801
:1039A0000078E0726271A171E7714FF001084FF089
:1039B0008045052825D2DFE800F01003062022000C
:1039C000C4F8188009E000F0CBF8012128460AF07D
:1039D0002DFC0028F9D00220A0610AF053FCB0B100
:1039E00000F0E6F9217E01F0030188420FD1B079A1
:1039F00050B10220C5F8040370E04748ECE747489F
:103A0000EAE740F22B314DE000F0A6F966E0C5F898
:103A10000C804FF4827AC5F80471A069C5F81805C6
:103A20000AF095FC40B90AF09CFC28B90AF0B0FCF9
:103A300010B90AF0C1FC38B14FF08050D0F8440200
:103A40003749C0F3423008600AF081FC40B90AF0FF
:103A500088FC28B90AF09CFC10B90AF0ADFC18B13A
:103A60002F491031C1F80080C5F808800220C5F840
:103A70000403B07990BBD5F8040310F0020F0FD007
:103A8000DFF8A090D9F80010C94341F3001101F10B
:103A90000108D9F8001041F01001C9F8001007E042
:103AA0004FF43B716D2000F0E1F900BF00F004FB22
:103AB000514628460AF0B5FB0028F7D000F04CF933
:103AC000B8F1000F05D1D9F8001021F01001C9F8A4
:103AD00000100220C5F80803C5F80471A07970B180
:103AE000307860B900F04AF9064600F02FFA6FF01E
:103AF000004116B1C4E9041001E0C4E90401012148
:103B000028460AF093FB08B100F032F9A772BDE82D
:103B1000F08700003C0000200100020001000300CB
:103B20003C05004010ED00E010B5EFF3108472B6D4
:103B30000A48417829B14178491E4170417829B13C
:103B400008E040F20D116D2000F090F9807808B97E
:103B500000F022F9002C00D162B610BD3C0000201C
:103B600010B5EFF3108472B606484178491C4170D5
:103B70004078012801D10AF070FB002C00D162B618
:103B800010BD00003C000020054810B5C17821B1EF
:103B900000210171C170FFF7C7FF002010BD0000B8
:103BA0003C00002070B50C4CE17861B90125E5704E
:103BB000E061FFF7D5FF00F0E1F830B1E06910B146
:103BC00080470020E061002070BD4FF080402571EB
:103BD000C0F80453F7E700003C0000202DE9F04155
:103BE00004006FF015003CD02178042939D8002951
:103BF000617838D0002934D1A178002931D1002052
:103C00000AF0DAFA00200AF0CAFA4FF080484FF0C2
:103C1000FF31C8F808130025C8F80051C8F804514E
:103C2000C8F80C51C8F81051134E7570A088B081B7
:103C30000AF00AFB012708B1F770777001214046AE
:103C40000AF0F4FA08B100F093F82046FFF7A0FE5E
:103C5000777200200AF0A3FA4FF0E0212846C1F85D
:103C60000071BDE8F0810029FBD02029F9D8A178A6
:103C70002129C4D9F5E700003C00002001488089D3
:103C8000704700003C00002010B50D480AF03DFBD5
:103C90000B49083948B1012008704FF0E021C1F804
:103CA0000002BDE81040FFF75BBF887A022801D10F
:103CB000FFF7C8FDBDE8104001480AF03DBB000019
:103CC000440000200248807A002800D0012070477C
:103CD0003C000020F8B51F4DE87A00280FD1287E5F
:103CE00000F003000AF0BEFA002808D0EFF31081BC
:103CF00072B6FFF7E7FF18B1002900D162B6F8BD30
:103D00000126AE7201B962B618204FF08044C4F8A3
:103D10000803A6614FF42070ADF80000BDF8000064
:103D2000411EADF80010F9D20027C4F80C71C4F898
:103D30001071084808300AF0FBFA2F70FFF782FD77
:103D40006661687900F07F00C4F838051820C4F86F
:103D50000403F8BD3C00002010B5044C207E00F0A8
:103D600003000AF07FFA0028F8D010BD3C000020C4
:103D70000149012008707047C00200204FF08040C8
:103D8000D0F8000118B903480078002800D00120BD
:103D900070470000C00200204FF0804001214160C8
:103DA0000021C0F80011014801707047C0020020D6
:103DB0000248006800F00300704700001C04004047
:103DC00010B531B1012907D040F2023105A000F051
:103DD00021F8D0F8140401E0D0F8080400F0010044
:103DE00010BD00006E72665F636C6F636B2E6800BF
:103DF000BFF34F8F05480168054A01F4E0611143A4
:103E00000160BFF34F8F00BFFDE700000CED00E045
:103E10000400FA0572B6034A526802B19047FFF7F0
:103E2000E7FF00005C000020064810B5002101609B
:103E30000121016008460AF03CFABDE8104001206B
:103E40000AF02ABAFC1F0040074810B50121416062
:103E5000891EC0F808130C200AF02BFABDE81040A8
:103E60000C200AF019BA000000C000400EB572B66E
:103E70000F4A5568D5B1002203466E460A2403E076
:103E8000B0FBF4F0521CD2B20028F9D1B05409E0D2
:103E9000B3FBF4F004FB1030B3FBF4F3521ED2B2C8
:103EA0003030B054002AF3D13046A847FFF7A0FFC6
:103EB0005C00002070B5174C06460D46607810B1C6
:103EC0004FF0FF3070BD06B9134E62602570FFF7EA
:103ED000ABFFFFF7B9FF3046FFF780FE0600F1D1D8
:103EE000FEF7D2FEFFF7F6FE0AF0A9F828460AF020
:103EF000D3F90120002D09DB05F01F0100FA01F1C3
:103F00006A09920002F1E022C2F8001160703046A6
:103F100070BD00005C000020D452010001484078D0
:103F2000704700005C000020074890F9000000285E
:103F300009DB00F01F02012191404009800000F1DF
:103F4000E020C0F8001270475C0000202DE9F0412D
:103F500001264FF0E02231034FF000084046C2F83E
:103F60008011BFF34F8FBFF36F8F164CC4F8000161
:103F70000C200AF0BDF9144D2868C04340F3001727
:103F8000286840F010002860C4F8046326607F1C95
:103F900002E000BF00F090F8D4F800010028F9D04A
:103FA0001FB9286820F0100028600848056866607E
:103FB000C4F80863C4F800810C200AF099F9284677
:103FC000BDE8F08100C0004010ED00E008C50040F1
:103FD00010B5024605200C4904E000BF01EBC00308
:103FE0001B7933B1401EC0B2F8D248216920FFF7D7
:103FF0003DFF41F8302001EBC00100224A718A7177
:1040000001220A7110BD0000A419002010B5052876
:1040100001D3582106E00A4901EBC00001790129CA
:1040200003D059216920FFF721FF41798279491C8A
:10403000C9B28A4200D04171BDE81040FFF774BF99
:10404000A419002070B505250E4E0F4C16E02178FE
:1040500006EBC1000279012A08D1427983799A429C
:1040600004D04279827156F8310080472078401C94
:10407000C0B22070052801D3002020706D1EEDB263
:10408000E5D270BDA4190020C102002000B50AF0DD
:104090005EF940B90AF065F928B90AF079F910B962
:1040A0000AF08AF908B1024800BD024800BD0000CC
:1040B0000C05004000E7014010B50AF07DF930B36F
:1040C000EFF31080C8B1002172B61248026803688D
:1040D000C2F3001243F0100303604FF0E023D3F863
:1040E0000042D3F804321C4300D040BF20BF00BFC1
:1040F00000BF00BF00BF12B105E00121E4E7026884
:1041000022F010020260002900D062B610BD20BF6C
:1041100010BD000010ED00E00149096889680847FA
:10412000640000200149096809690847640000200B
:1041300001480068406800476400002001490968A0
:104140000968084764000020255601001D5601003B
:10415000115601002156010019560100094810B5F9
:104160008178042908D010290AD0202908D04FF4DA
:10417000E1716B20FFF77AFE1021817076F030FB41
:1041800010BD0000680000200B4810B5017831B167
:10419000EFF3108472B68178102905D008E04FF44F
:1041A00044716B20FFF762FE08218170FEF71CFC52
:1041B000002C00D162B610BD6800002070B5124C12
:1041C000207858B1EFF3108572B6607948B10228B3
:1041D00009D040F2D9216B20FFF748FE40F2C621FA
:1041E000F9E7012003E0A1780020042901D06071E3
:1041F00002E0607176F0E4FA05B962B6E078BDE8F5
:104200007040FFF703BF0000680000200E4810B5A3
:10421000017859B1EFF3108172B642794AB1012A9F
:1042200009D040F201316B20FFF720FE40F2F1216E
:10423000F9E7022200E00022427101B962B6C078BB
:10424000BDE81040FFF7E2BE6800002010B5134C37
:10425000207810B140F282211DE000206070012022
:10426000A0700F484FF4C851016005210181B721AA
:1042700041810C4941600C48FFF7AAFEE070002123
:104280000A48FEF789FB2071202802D00120207007
:1042900010BD40F291216B20FFF7E8FD680000207F
:1042A000DC190020FF3F420FD5B3000005B300002A
:1042B000114810B58178042901D0002010BD807903
:1042C000A8B1FEF7D9FE441C012009F05EFF001BD7
:1042D0000002C11700EB11600012002800DC002072
:1042E0000649A0FB0101C00B40EA414010BD044853
:1042F00001684089081A10BD6800002040420F0084
:10430000DC19002070B50E46FEF7B6FE00252E4CD7
:10431000082E31D2DFE806F030043B3B211C4C4133
:104320000121022000F0FEF8607858B10420A0704E
:1043300026480068A060A571607902283FD076F019
:104340003FFA3CE02020A070BDE87040FEF74CBB77
:1043500040F20A216B20FFF789FD607800280BD01E
:10436000A078042809D04FF0E0210220C1F8800194
:10437000BFF34F8FBFF36F8F70BD00F073F818B1AC
:104380001348D0F84401B0B935F088FB70BD012165
:10439000022004E00120A07070BD0121282000F05F
:1043A000C1F860780028F5D0BDE8704000F096B8FC
:1043B00000F058F818B1BDE87040FFF7CFBEBDE877
:1043C000704000F057B8000068000020DC190020A1
:1043D00000B0004070B5EFF3108472B6204D00209D
:1043E00069796871C1B3012906D0022918D084F314
:1043F000108840F2A31128E084F31088687810B187
:104400004FF4A87121E00021142000F08BF8012066
:104410006870A878012821D1BDE8704000F05EB82E
:10442000697849B16870A878082815D007DC022897
:1044300012D0042807D10BE040F2611105E01028EA
:1044400006D0202808D040F27D116B20FFF70EFD2A
:104450002020A870FEF7C8FA84F3108870BD000011
:104460006800002002488079012800D000207047B1
:104470006800002070B50320FDF720FB154D29686A
:10448000814200D8084606460321FDF74FFA124C38
:10449000012130B1012818D040F243116B20FFF701
:1044A000E5FC2868B042A06806D1FEF77DFB2868CD
:1044B000A1680844A06070BD3044A060A171698902
:1044C000401ABDE87040FEF76FBBA1716889A16812
:1044D000081AF6E7DC190020680000200F4810B524
:1044E000002101600122816002700181032181723B
:1044F00000F110010A6842604968C1600848022161
:10450000817006490079FDF7B5FC002804D140F21E
:1045100007116B20FFF7AAFC10BD0000CC1900208A
:10452000680000200B4A10B5927812B1531E1A424F
:1045300001D0E12109E021B10240900608D1E62135
:1045400003E08243900603D1EA216B20FFF78EFC43
:1045500010BD0000680000200149012088707047EC
:1045600074000020AB560100DB560100C756010065
:10457000B5560100C1560100AF560100A956010011
:10458000A7560100D7560100CD560100BB560100C9
:10459000A1560100995601009D5601009356010055
:1045A00001480068806B004788000020014A1268BB
:1045B000D26A1047880000200149096889690847C4
:1045C000880000200148006800680047880000203B
:1045D000014800684069004788000020014A1268CD
:1045E000D268104788000020014800680069004731
:1045F00088000020014A1268926810478800002055
:1046000001490968496A084788000020014909688A
:10461000896A084788000020014A126852681047DA
:10462000880000200148007870470000C202002086
:104630002DE9F14F03F11C0402EB840C4FEA930BBC
:104640008A68CB680868496800F046F93CE9F000E0
:104650006040694072407B400BF1060E4EE083EAF9
:10466000134480EA134582EA134746BA96EA344473
:10467000604000F00F1684EA063420F00F1684EA3A
:10468000161054BA94EA0106724002F00F1486EA3A
:10469000043622F00F1486EA14124CBA65406940C1
:1046A00001F00F1485EA043521F00F1485EA141186
:1046B0005CBA67407B4003F00F1487EA043723F0AD
:1046C0000F1487EA141344BA44404DBA4D4056BA09
:1046D00056405FBA5F4087EA174886EA174B84EA7C
:1046E00017464FEA38488BEA1B4485EA1B4788EA9D
:1046F0001B4580EA3440694072407B4000F07034D2
:1047000000F0803500F00F3040EA440040EAD50068
:1047100080EA900404F0332480EA8400604001F0D1
:10472000703401F0803501F00F3141EA440141EA73
:10473000D50181EA910404F0332481EA84016140C7
:1047400002F0703402F0803502F00F3242EA440287
:1047500042EAD50282EA920404F0332482EA840217
:10476000624003F0703403F0803503F00F3343EA06
:10477000440343EAD50383EA930404F0332483EA31
:1047800084036340C943DB4381EA000483EA0446AF
:1047900086EA020183EA014382EA334583EA14434D
:1047A0005C4084EA00077FEA040A8AEA024A8AEA4D
:1047B000010B87EA11488AEA374A80EA060181EA52
:1047C0001A418AEA030A04EA0A00454088EA040713
:1047D00007EA0B0041408AEA0B0608EA060084EA71
:1047E00034428AEA3A4602EA0603584045404140CC
:1047F00087EA37438BEA3B4003EA000985EA09056B
:1048000082EA0309464006EA0906714085EA01008A
:1048100005EA3546464006EA314181EA304181EAFF
:10482000364606EA304686EA354634400F4086EA88
:10483000010508EA050886EA3640024088EA0208CF
:1048400081EA314213405C4080EA020309EA03092D
:1048500087EA0907674088EA040806EA0A0601EAC7
:104860000B018AEA0B0425408AEA3A44204045407D
:104870008BEA3B4B02EA0B02564084EA0B042340CE
:1048800059406E40694087EA364080EA384080EA05
:10489000060380EA104481EA134585EA344585EA37
:1048A00017427D4082EA354180EA05403CE9F0004C
:1048B0006040694072407B40BEF1010E3FF6CFAED2
:1048C00020BC00F05FF828606960AA60EB60BDE87A
:1048D000F08F00BF00F000BA80EA101404F0F0146A
:1048E00080EA0410604081EA111404F0F01481EAB7
:1048F0000411614082EA121404F0F01482EA0412F6
:10490000624083EA131404F0F01483EA0413634052
:1049100080EA102404F47F4480EA0420604081EAA5
:10492000112404F47F4481EA0421614082EA1224C4
:1049300004F47F4482EA0422624083EA132404F4EC
:104940007F4483EA0423634081EA500404F0553431
:1049500080EA4400614083EA520404F0553482EA5C
:104960004402634082EA900404F0333480EA840015
:10497000624083EA910404F0333481EA84016340A5
:10498000704700BF82EA900404F0333480EA840068
:10499000624083EA910404F0333481EA8401634085
:1049A00081EA500404F0553480EA4400614083EA0F
:1049B000520404F0553482EA4402634080EA102431
:1049C00004F47F4480EA0420604081EA112404F466
:1049D0007F4481EA0421614082EA122404F47F4486
:1049E00082EA0422624083EA132404F47F4483EAC7
:1049F0000423634080EA101404F0F01480EA0410E9
:104A0000604081EA111404F0F01481EA041161405D
:104A100082EA121404F0F01482EA0412624083EA7B
:104A2000131404F0F01483EA04136340704700BFCA
:104A30002DE9F14F94464FEA930B8A68CB680868DA
:104A40004968FFF749FF0BF1060E33E083EA134490
:104A500080EA134582EA134746BA96EA3444604036
:104A600000F00F1684EA063420F00F1684EA1610C0
:104A700054BA94EA0106724002F00F1486EA043632
:104A800022F00F1486EA14124CBA6540694001F016
:104A90000F1485EA043521F00F1485EA14115CBA6D
:104AA00067407B4003F00F1487EA043723F00F14AC
:104AB00087EA1413BCE8F0006040694072407B4014
:104AC00000F0E03400F0103500F00F3040EA540000
:104AD00040EAC50080EA900404F0332480EA8400B0
:104AE000604001F0E03401F0103501F00F3141EA8F
:104AF000540141EAC50181EA910404F0332481EABA
:104B00008401614002F0E03402F0103502F00F320F
:104B100042EA540242EAC50282EA920404F03324D3
:104B200082EA8402624003F0E03403F0103503F0BF
:104B30000F3343EA540343EAC50383EA930404F0C2
:104B4000332483EA8403634081EA324787EA1345CA
:104B500081EA354690EA060484EA034B82EA1B4266
:104B600080EA044484EA054483EA144A85EA14444A
:104B70008BEA044B84EA374481EA0B4181EA16410F
:104B800004EA0A00454082EA04082BEA0800414092
:104B90008AEA0B0602EA060084EA34438AEA3A46C5
:104BA00003EA060778404540414088EA38478BEAE7
:104BB0003B4007EA000985EA090583EA0709464000
:104BC00006EA0906714085EA010005EA35464640D5
:104BD00006EA314181EA304181EA364606EA30464A
:104BE00086EA3546344008EA010886EA01052A408B
:104BF00086EA364003405A4081EA31431F407C40F8
:104C000080EA030709EA070988EA0908544088EAA4
:104C1000020806EA0A0601EA0B018AEA0B021540BD
:104C20008AEA3A42104045408BEA3B4003405E40EE
:104C30004240174079404D404E40E443F64386EAF7
:104C400018435D4085EA054083EA134386EA034141
:104C500083EA384284EA114383EA04435FEA334338
:104C6000BEF1010E3FF6F2AE1ED4BCE8F00060408B
:104C7000694072407B4020BCFFF784FE2860696079
:104C8000AA60EB60BDE8F08F2DE9E0414FF2F00241
:104C900080EA1031114080EA013048404108820822
:104CA000C3084FF0000E4FE700F0113001F0113152
:104CB00002F0113203F0113340EA410040EA820071
:104CC00040EAC3004FF2F00280EA1031114080EA5E
:104CD00001304840BDE8E0812DE9F04F02F11C05AC
:104CE0000646074600EB850851F8040B043A46F8DF
:104CF000040BF9D14FF0010CFFF7C6FF5FEA30203B
:104D000080EA0C001ECF41404A4053405C401EC622
:104D10002000464517D04FEA4C0C1CF4807F18BF8A
:104D2000ACF1E50C2C2DE7D03C2D06D1FFF7ACFF04
:104D300006CF41404A4006C6100006CF41404A40D7
:104D400006C61000D8E736E90F00FFF7C5FD043DA1
:104D500086E80F00F7D1BDE8F08F00BF2DE9F00322
:104D600091E8F803B2E802105B1854EB0C04B2E8C7
:104D700002104D4156EB0C0692E806104F4158EBDD
:104D8000020859EB0C0980E8F80380410130BDE8C6
:104D9000F00370472DE9F00391E8F803B2E8021040
:104DA0005B1A74EB0C04B2E802108D4176EB0C0632
:104DB00092E806108F4178EB020879EB0C0980E845
:104DC000F80380414042BDE8F00370472DE9F0034D
:104DD000524290E83800B1E880031740DB1918EA26
:104DE000020854EB080419EA020955EB090538C01A
:104DF00090E8780091E8820311404B4117407C41D4
:104E000018EA020855EB080519EA020956EB0906EB
:104E100078C080410130BDE8F00370472DE9F00310
:104E2000524290E83800B1E880031740DB1B18EAD3
:104E3000020874EB080419EA020975EB090538C089
:104E400090E8780091E8820311408B411740BC4103
:104E500018EA020875EB080519EA020976EB09065B
:104E600078C080414042BDE8F00370472DE9F00171
:104E700052424FF0030890E8300091E8C000A31BB5
:104E80001340E41AF618EB1B1340ED1AFF1830C05C
:104E9000C0C1B8F10108EED104680E68A31B13402D
:104EA000E41AF61804600E60BDE8F001704700BF18
:104EB00000B592EC070AB1E8005E07EE101A56EC56
:104EC000102A58EC117AA9FB0250AAFB0234E9FB24
:104ED0006603EBFB624340EC145AAAFB0605ECFBAD
:104EE0006235E9FB6740E9FB6830EEFB6250AAFBE4
:104EF0000721EAFB6851EBFB680112EE108AEBFB1D
:104F00006632ECFB6652EAFB6802EBFB681243EC8C
:104F1000154AA9FB084312EE908AE9FB6803EAFBF5
:104F20006813EBFB6823EBFB6754EEFB660413EEA0
:104F3000108AE9FB6814EAFB6824EBFB683406EE90
:104F4000105A17EE109A99E8000CACFB076511EEA9
:104F5000909AECFB6915EEFB6925EAFB6935EBFBE2
:104F6000694510EE109AEAFB6906EBFB691612EE32
:104F7000109AECFB6926EEFB6936EAFB6946EBFB0F
:104F8000695610EE909AAAFB0987EBFB692712EE8F
:104F9000909AECFB6937EEFB6947EAFB6957EBFB3C
:104FA000696711EE109AEEFB6918EAFB6928EBFBC2
:104FB000693813EE109AECFB6948EEFB6958EAFB7E
:104FC0006968EBFB697800BD2DE9F04F07EE900AA8
:104FD000FFF76EFF17EE909AA9EC054A89E8FF01EA
:104FE000BDE8F08F00B591E8805FA7FB0750A7FBF5
:104FF0000834E7FB6803E7FB694340EC145AA7FB5E
:105000000905E7FB6A35E8FB6840E7FB6A30E7FB28
:105010006B50A8FB0921E7FB6B51E7FB6C01E8FB38
:105020006932E8FB6A52E7FB6C02E7FB6E1243EC65
:10503000154AA8FB0A43E8FB6B03E7FB6E13E8FB8A
:105040006E23E9FB6954E8FB6B04E8FB6C14E8FB96
:105050006E24E9FB6E3406EE105AA9FB0A65E8FBE4
:105060006C15E9FB6C25E9FB6E35EAFB6E45E9FB47
:105070006A06E9FB6B16E9FB6C26EAFB6C36EAFB79
:105080006E46EBFB6E56A9FB0B87EAFB6B27EAFB30
:105090006C37EBFB6C47EBFB6E57ECFB6E67EAFB88
:1050A0006A18EAFB6B28EBFB6B38EBFB6C48ECFBFC
:1050B0006C58ECFB6E68EEFB6E7800BD2DE9F04F8E
:1050C00007EE900AFFF78EFF17EE909AA9EC054ABB
:1050D00089E8FF01BDE8F08F2DE9F00791E8F807B6
:1050E000B2E802105B1854EB0C04B2E802104D4118
:1050F00056EB0C06B2E802104F4158EB0C08B2E830
:10510000021059EB01095AEB0C0A80E8F8078041BC
:105110000130BDE8F00770472DE9F00791E8F80786
:10512000B2E802105B1A74EB0C04B2E802108D4175
:1051300076EB0C06B2E802108F4178EB0C08B2E86F
:10514000021079EB01097AEB0C0A80E8F80780413C
:105150004042BDE8F00770472DE9F007524290E861
:105160007800B1E880071740DB1918EA020854EB11
:10517000080419EA020955EB09051AEA020A56EB76
:105180000A0678C090E87800B1E8800717407B41B4
:1051900018EA020854EB080419EA020955EB09055C
:1051A0001AEA020A56EB0A0678C080410130BDE8CF
:1051B000F00770472DE9F007524290E87800B1E817
:1051C00080071740DB1B18EA020874EB080419EA91
:1051D000020975EB09051AEA020A76EB0A0678C09D
:1051E00090E87800B1E880071740BB4118EA020850
:1051F00074EB080419EA020975EB09051AEA020AB8
:1052000076EB0A0678C080414042BDE8F00770475F
:105210002DE9F00152424FF0040890E8300091E887
:10522000C000A31B1340E41AF618EB1B1340ED1A41
:10523000FF1830C0C0C1B8F10108EED1BDE8F001DF
:10524000704700BF00B592EC080AB1E8805707EE3E
:10525000101A53EC102A56EC114AA7FB0251A8FB76
:10526000020BE7FB6310E9FB62B041EC145AA8FBA8
:105270000351EAFB6201E7FB64B5E7FB6605E8FB67
:10528000661505EE10BAA9FB03B6EAFB6316ECFB44
:105290006356E8FB640BE9FB641BEAFB645BECFB15
:1052A000646B05EE900AACFB023012EE104AEEFB86
:1052B0006250E9FB6460EAFB64B0E7FB6431E8FB41
:1052C000645112EE904AE8FB6461E9FB64B1EAFBC9
:1052D000640106EE103AA7FB043213EE104AE7FB16
:1052E0006462E8FB64B2E9FB6402EAFB641211EE5B
:1052F000904AE9FB6453EAFB646313EE904AE7FBD0
:1053000064B3E8FB6403E9FB6413EAFB642306EE81
:10531000905A17EE109A99E8000610EE108AA9FB31
:105320000854EAFB68B412EE108AECFB6804EEFB4A
:105330006814E9FB6824EAFB683410EE908AEEFBFF
:105340006865E9FB68B5EAFB680512EE908AECFB3C
:105350006815EEFB6825E9FB6835EAFB684507EE52
:10536000106A11EE108AAEFB0876E9FB6806EAFBCC
:10537000681613EE108AECFB6826EEFB6836E9FB34
:105380006846EAFB685611EE908AECFB68B7EEFBC4
:105390006807E9FB6817EAFB682713EE908AECFBC5
:1053A0006837EEFB6847E9FB6857EAFB686700BDB2
:1053B0002DE9F04F07EE900AFFF744FF17EE908AB1
:1053C00007EE90BAA8EC084A88E8FF00BDE8F08F25
:1053D00000B591E89857A3FB0352A3FB0401E3FB3C
:1053E0006420E3FB671042EC145AA3FB0752E3FB73
:1053F0006802E4FB6415E3FB6805E3FB6925A4FB95
:1054000007B6E3FB6926E3FB6A56E4FB670BE4FBA4
:10541000682BE3FB6A5BE3FB6C6B40EC151AA4FBA7
:105420000810E4FB6950E3FB6C60E3FB6EB0E7FB44
:105430006721E4FB6951E4FB6A61E3FB6EB1E4FBC5
:105440006E0106EE102AA7FB0832E4FB6A62E4FB59
:105450006CB2E4FB6E02E7FB6E12E7FB6853E7FBFE
:105460006963E4FB6CB3E7FB6C03E7FB6E13E8FBDB
:105470006E2306EE905AA7FB0954E7FB6AB4E7FBDC
:105480006C04E8FB6C14E8FB6E24E9FB6E34E8FB6B
:105490006865E7FB6AB5E8FB6A05E8FB6C15E9FBA4
:1054A0006C25E9FB6E35EAFB6E4507EE106AA8FB3A
:1054B0000976E8FB6A06E9FB6A16E9FB6C26EAFB5B
:1054C0006C36EAFB6E46ECFB6E56E8FB69B7E9FB0F
:1054D0006907E9FB6A17EAFB6A27EAFB6C37ECFB12
:1054E0006C47ECFB6E57EEFB6E6700BD2DE9F04F8D
:1054F00007EE900AFFF76CFF17EE908A07EE90BA5E
:10550000A8EC084A88E8FF00BDE8F08F30B44FF0FF
:10551000000310F8014B11F8015B013A84EA05041D
:1055200043EA0403F5D1A3F101034FEAD37030BC81
:10553000704700BF4FF0000310F8012B013943EA18
:105540000203F9D1A3F101034FEAD370704700BF02
:1055500030B411F8014B12F8015B6C4000F8014BBC
:10556000013BF6D130BC70472DE9F00391E8F80318
:10557000B2E802105B1854EB0C04B2E802104D4183
:1055800056EB0C0692E806104F4158EB020859EB17
:105590000C098941013B74F1000475F1000576F1B5
:1055A000FF3677F1FF3778F1FF3879F1FF3951F1A4
:1055B000000113EBD17354F1000455F100054E4185
:1055C0004F4158EB010859EB010980E8F803BDE8A9
:1055D000F00370472DE9F00391E8F803B2E80210F8
:1055E0005B1A74EB0C04B2E802108D4176EB0C06EA
:1055F00092E806108F4178EB020879EB0C0989419B
:1056000013EBD17354F1000455F100054E414F41A5
:1056100058EB010859EB010980E8F803BDE8F003F5
:10562000704700BF2DE9F04F07EE900AFFF740FCEE
:105630005AEC359AB9EB05097AEB060AB84171EBD9
:10564000080172F1000273F1000374F100046BEBC6
:105650000B0B491972417B4154EB08044BF10005D7
:1056600057EC146A15EE108ABEEB0E0E59EB0209C8
:105670005AEB030A604169415EF1000E96419F4179
:1056800078EB040879EB05097AF1000A70F1000B58
:1056900071F1000C6EF1010E16EBDE7657F100078A
:1056A00058F1000859EB0E095AEB0E0A5BEB0E0B92
:1056B0005CEB0E0C17EE900A80E8C01FBDE8F08F7F
:1056C0002DE9F04F07EE900AFFF78CFCB0E700BF22
:1056D0002DE9F00791E8F807B2E802105B1854EBE7
:1056E0000C04B2E802104D4156EB0C06B2E8021071
:1056F0004F4158EB0C08B2E8021059EB01095AEB84
:105700000C0A8941B3F1FF3374F1FF3475F1FF35B1
:1057100076F1000677F1000778F1000879F10109C8
:105720007AF1FF3A51F100015B184C414D4156F1BD
:10573000000657F1000758F1000859EBD1795AEBF0
:10574000010A80E8F807BDE8F00770472DE9F00787
:1057500091E8F807B2E802105B1A74EB0C04B2E8A7
:1057600002108D4176EB0C06B2E802108F4178EB07
:105770000C08B2E8021079EB01097AEB0C0A8941B6
:105780005B184C414D4156F1000657F1000758F1A6
:10579000000859EBD1795AEB010A80E8F807BDE817
:1057A000F007704718EB040859EB05095AEB060A95
:1057B0005BEB070B5FF0000C4CF1000C18EB0508DD
:1057C00059EB06095AEB070A5BEB070B50EB0C0091
:1057D0005FF0000C51EB0C0152EB0C0263414CF1F9
:1057E000000CB8EB070879F100097AF1000A7BEBAD
:1057F000040BA841B141A241B3416CF1000CBBEBD9
:10580000050BB041B941AA41BB416CF1000C6FEAF4
:10581000EC74B8EB040879EB04097AEB040A7BF129
:10582000000B70F1000071F1000172EBD472A34122
:105830006CF1000C18EBEC7859EBEC795AEBEC7A44
:105840005BF1000B50F1000451F1000552EBDC76E6
:1058500053EBEC774CF1000C18EBEC7059EBEC715E
:105860005AEBEC725BF1000354F1000455F10005B2
:1058700056EBDC7657EBEC77704700BF2DE9F04F25
:1058800007EE900AFFF7DEFC59EC168A17EE10AA15
:10589000FFF788FF59EC148A5BEC15AAFFF782FF2B
:1058A00017EE908A88E8FF00BDE8F08F2DE9F04FF1
:1058B00007EE900AFFF78CFD59EC168A17EE10AA36
:1058C000FFF770FF59EC148A5BEC15AAFFF76AFF2B
:1058D00017EE908A88E8FF00BDE8F08F2DE9F00709
:1058E00091E8F807B2E802105B1854EB0C04B2E838
:1058F00002104D4156EB0C06B2E802104F4158EB36
:105900000C08B2E8021059EB01095AEB0C0A4FF0EF
:10591000260261EB010122EA01015B1854F1000447
:1059200055F1000556F1000657F1000758F100083F
:1059300059F100095AF1000A61EB010122EA010163
:105940000B4480E8F807BDE8F00770472DE9F00741
:1059500091E8F807B2E802105B1A74EB0C04B2E8A5
:1059600002108D4176EB0C06B2E802108F4178EB05
:105970000C08B2E8021079EB01097AEB0C0A4FF03F
:10598000260261EB010102EA01015B1A74F10004D5
:1059900075F1000576F1000677F1000778F100084F
:1059A00079F100097AF1000A61EB010102EA0101D3
:1059B000A3EB010380E8F807BDE8F007704700BFDC
:1059C0002DE9F04F07EE900AFFF73CFC4FF0260C54
:1059D00059EC148A4FF0000AE0FB0C8AE1FB6C9A48
:1059E00051EC150AE2FB6CA0E3FB6C0153EC162AA8
:1059F000E4FB6C12E5FB6C235EEC174AE6FB6C34AF
:105A0000E7FB6CB40CFB04F418EB040459F100053B
:105A10005AF1000650F1000751F1000852F1000957
:105A200053F1000A5BF1000B60EB00002CEA000070
:105A300004448EE8F00FBDE8F08F00BF2DE9F04F71
:105A400007EE900AFFF7C4FCC0E700BF2DE9F003A2
:105A500091E8F8134FF4EE31BF390022E3FB6123E4
:105A6000E4FB6134E5FB6145E6FB6156E7FB6167FA
:105A7000E8FB6178E9FB6189ECFB619C4FF0260152
:105A800001FB0CFC12EB0C0253F1000354F1000477
:105A900055F1000556F1000657F1000758F10008CE
:105AA00059F100096CEB0C0C21EA0C010A4480E866
:105AB000FC03BDE8F00370472DE9F00390E8F8130C
:105AC0004FEAEC7202F013022CF0004C02F11301C9
:105AD000591854F1000155F1000156F1000157F138
